:020000040800F2
:10000000A81100209D010008A5010008AD2A0008E4
:10001000A9010008AB010008AD01000800000000C4
:10002000000000000000000000000000AF01000818
:10003000B101000800000000B30100087961000868
:10004000B7010008B7010008B7010008B7010008B0
:10005000B7010008B7010008B7010008B7010008A0
:1000600029090008B7010008B7010008B701000816
:10007000B7010008B7010008B7010008B701000880
:10008000B7010008B701000835030008B7010008F0
:10009000B7010008B7010008B7010008B701000860
:1000A00099620008C9620008B7010008B70100089A
:1000B000B7010008E1620008B7010008B7010008B5
:1000C000B7010008B7010008B7010008B701000830
:1000D000B7010008B7010008B701000875790008EA
:1000E000B7010008B7010008B7010008B701000810
:1000F000B7010008B7010008B7010008B701000800
:10010000B7010008B7010008B7010008B7010008EF
:10011000B7010008B7010008B70100081163000823
:10012000B7010008B7010008B7010008B7010008CF
:10013000B7010008B7010008B7010008B7010008BF
:10014000B7010008B7010008B7010008B7010008AF
:10015000B7010008B7010008B7010008B70100089F
:10016000B7010008B7010008B7010008B70100088F
:10017000B7010008B7010008B7010008000000003F
:10018000B7010008B7010008DFF80CD000F094F8C0
:1001900000480047357B0008A8110020064880472A
:1001A00006480047FEE7FEE7FEE7FEE7FEE7FEE75C
:1001B000FEE7FEE7FEE7FEE77D6200088901000832
:1001C0002DE9F05F0546002092469B46884606468C
:1001D000814640241BE0284641464746224600F01F
:1001E0005AF853465A46C01A914110D31146184640
:1001F000224600F041F82D1A67EB01084F462246CF
:100200000120002100F038F817EB00094E41201EB4
:10021000A4F10104DFDC484631462A464346BDE8E6
:10022000F09F40EA01039B0703D009E008C9121FB1
:1002300008C0042AFAD203E011F8013B00F8013BA0
:10024000521EF9D27047D2B201E000F8012B491ECC
:10025000FBD270470022F6E710B513460A46044663
:100260001946FFF7F0FF204610BD421C10F8011B95
:100270000029FBD1801A7047202A04DB203A00FABB
:1002800002F1002070479140C2F1200320FA03F3ED
:10029000194390407047202A04DB203A21FA02F0EB
:1002A0000021704721FA02F3D040C2F120029140B0
:1002B0000843194670470000064C074D06E0E06809
:1002C00040F0010394E8070098471034AC42F6D39D
:1002D000FFF75EFFE8A1000808A2000870B58C18BF
:1002E00010F8015B15F0070301D110F8013B2A114A
:1002F00006D110F8012B03E010F8016B01F8016B37
:100300005B1EF9D12B0705D40023521E0DD401F832
:10031000013BFAE710F8013BCB1A921C03E013F8FB
:10032000015B01F8015B521EF9D5A142D8D3002030
:1003300070BD000010B500BF0E480068C0F380001B
:1003400058B10C48006820F00C000A49086006F01B
:10035000CFF9044606F0A2FE0BE00748006820F043
:100360000C000449C1F8000206F0C2F9044606F088
:1003700095FE10BD002001400022014055494A6809
:1003800022F440324A604A6843681A434A6002686D
:10039000526822F4807203685A60026853680269E6
:1003A00043EA022203685A600268526822F04072EF
:1003B00003685A600268526883681A4303685A6087
:1003C0000268926822F4006203689A600268926888
:1003D000C3681A4303689A603F4B826A9A4218D0F6
:1003E0000268926822F0706203689A6002689268FC
:1003F000836A1A4303689A600268926822F0405246
:1004000003689A6002689268C36A1A4303689A6034
:100410000BE00268926822F0706203689A600268DA
:10042000926822F0405203689A600268926822F053
:10043000020203689A6002689368027E43EA4202FD
:1004400003689A602022125CA2B10268526842F4EA
:10045000006203685A600268526822F460420368CE
:100460005A6002685368426A521E43EA4232036885
:100470005A6005E00268526822F4006203685A601C
:100480000268D26A22F470020368DA620268D36AF0
:10049000828B521E43EA02520368DA620268926853
:1004A00022F4007203689A600268936890F8302022
:1004B00043EA422203689A600268926822F48062EA
:1004C00003689A6002689368426943EA822203687B
:1004D0009A607047002301400100000F73B581B09E
:1004E000024602980090BDF8080010FB00F0BDF82D
:1004F0000A5015FB05010B461088404398421FD255
:100500001B0E92F8B2001B1ADDB2101D30F8154018
:10051000BDF9080000FB04F10846CD1701EB554575
:10052000ED132DB2ADF80050BDF90A0000FB04F147
:100530000846CD1701EB5545ED132DB2ADF802502D
:1005400000987EBD2DE9F0410446254695F83060BF
:1005500000223146204606F035FE00B200F5004785
:100560003A460E490E4802F0FBFA0C490C4802F0DC
:1005700015FB3120465D00223146204606F022FE62
:1005800000B200F500473A460649054802F0E8FA8D
:100590000449034802F002FBBDE8F08101001002AB
:1005A00000740040120043150246134603F1300068
:1005B000405C70470246134603F1320030F91100E7
:1005C0007047000010B504460449054802F0DDFA02
:1005D0000449034802F0D9FA10BD000001001002DE
:1005E000007400401200431510B5034603F13004B7
:1005F000625410BD10B5034603F1320424F81120F3
:1006000010BD70B504460125A08990B1A089401E97
:10061000A081A08960B9B4F91400217E90FBF1F0AB
:1006200006B23146A06800F064F90120A07300E032
:100630000025284670BD0146C87B704710B5016093
:100640004260836000248473C47310BD0146887BBC
:100650007047C173704770B5044600221146606848
:1006600007F0E5F9B4F91410606807F026FA0021E4
:10067000206805F07DFC00221146206805F0DEFBB5
:10068000E28AB4F91210206805F0D8FBE08A218ACA
:1006900000FB01F54FF47A70B5FBF0F5A581A08958
:1006A000401CA08170BDF0B501460C6A676ABCB2FF
:1006B0008F6E04FB07F21446D71702EB17473B1463
:1006C000B1F90650CB804C7814FB03F420B288803B
:1006D0005C1B26B28C6834448C60F0BD2DE9F04F71
:1006E00085B004468A46206A04904FF0000B00272C
:1006F0000120029094F875000190B94600BF04985B
:10070000406A0646B4F870800020A4F8700000BF6C
:100710000498006800F01000009008EB0900012820
:1007200002D9012084F879000098102816D1B4F875
:100730007200B04201D2012000E0002080466E34F9
:10074000A088301A08EB0901228801FB1201A27A65
:100750006E3C04F1280040F8221015E0B4F8720055
:10076000B04201D9012000E0002080466E34A0880C
:10077000301A08EB0901228801FB0201A27A6E3CC3
:1007800004F1280040F82210002706E004F12800B8
:1007900050F827008344781CC7B201988742F5DBE4
:1007A000606A00FB0BF5B4F86E0094F875104843CE
:1007B0000390039895FBF0F528B2AAF80000A089F1
:1007C000281A00B2608228B2A08194F8781004F14F
:1007D000280050F8210034F86C1F484314F86B1CB3
:1007E00000FB01F5608895FBF0F554F8500C45438B
:1007F00034F8520C95FBF0F528B224F85E0CE68034
:10080000207B401C2073207B617A6C3C884202D1A3
:10081000002084F8780094F8790030B1002002902C
:1008200084F87600E078207004E05146204605F018
:1008300070FA0290029805B0BDE8F08F002106E042
:10084000002300F1280242F821304A1CD1B290F86E
:1008500075208A42F4DC012280F876207047014638
:100860000A46B2F87000401CA2F8700000207047E1
:100870002DE9F0410446583454F8385C0020686291
:1008800000BFE08A4FF0FF31B1FBF0F02061A08A99
:1008900000EB8000400044F8340CE07F02050121A9
:1008A000284602F0C7F9E07F02051021284602F031
:1008B000C1F900BF6FF00100286100BF00BFE86808
:1008C00040F00100E86000BF00BF286840F0010070
:1008D000286000BF677F583C002606E0002104F135
:1008E000280040F82610701CC6B2BE42F6DBBDE8F8
:1008F000F08170B5046AC18045784D432DB2858082
:10090000002906DA4D4229B28DB24FF6FF76721BEE
:1009100000E08AB2B0F86E5055434FF6FF76B5FB53
:10092000F6F5ABB2636270BD10B5042005490968E5
:10093000014029B100BF0349086000BF06F081FEF5
:1009400010BD0000143C014072B600BFFEE710B5B8
:10095000014600200022A1B10C781444A2B24C78C8
:100960001444A2B2002305E08C1CE45C1444A2B23F
:100970005C1CE3B24C789C42F6DCD0B200EB222443
:10098000E0B210BD0021418201750022427580F85D
:10099000962000F8971F4170817097389A210A5469
:1009A00080F81B21002180F81C1180F81D11704770
:1009B00010B5029C18B1016042608360C46010BD34
:1009C00010B5044604EB440000EB0410114901EBA0
:1009D000400090F82400D8B90F4951F8240005F0E0
:1009E000E8F904EB440101EB04110A4A02EB41016E
:1009F000C88304EB440000EB0410114601EB4000F7
:100A0000C08B04EB440101EB041102EB41010882AD
:100A100010BD000010080020E40500203EB504468B
:100A2000002002900190009004EB440000EB0410C1
:100A30002D4901EB40000299016004EB440000EBFA
:100A40000410294901EB40000099416004EB440087
:100A500000EB0410244901EB40000199C16004EB54
:100A6000440000EB0410204901EB400001990161B2
:100A7000002004EB440101EB04111B4A02EB41018D
:100A8000C88304EB440000EB0410114601EB400066
:100A90000199C0F8161004EB440000EB0410114655
:100AA00001EB40000099C0F81A10002004EB44014B
:100AB00001EB041102EB410108840C4951F82400B8
:100AC000002103F0A5FF0A4951F82400002103F09A
:100AD0009FFF084951F8240005F0A6F9064951F88E
:100AE000240004F092F93EBD10080020EC0500201F
:100AF000F0050020E40500200006002070B586B057
:100B00002A49086805F01AFA0646304605F0EEF85C
:100B100004462749086803A904F03DF8039802F049
:100B200077FA02902146029802F0A2FA0590214A33
:100B3000B2F91020BDF91430D11A1F4A106803F021
:100B40006FFFADF810001B4AB2F91220BDF9163044
:100B5000D11A1A4A106803F063FFADF81200184961
:100B600008680499FFF7BAFC0490304605F0C2F813
:100B700024B22146049802F0D5FA01900C49086885
:100B8000019904F010F805460A480499C0F81610B7
:100B900003990160029941600599C1600199C0F80B
:100BA0001A100484284606B070BD0000E405002039
:100BB0000006002010080020EC050020F0050020B1
:100BC000100600207047000030B50246854C886949
:100BD000A04200D000BF00BF92F83C00012801D124
:100BE000022030BD012082F83C0000BF08680928BF
:100BF00016D91068C0680C780A3C04EB4405072439
:100C0000AC40A0431468E0600C780A3C04EB440458
:100C10008868A0401468E46820431468E06013E02A
:100C2000106800690C7804EB44050724AC40A0432D
:100C3000146820610C7804EB44048868A0401468B0
:100C400024692043146820611068806B20F44010F0
:100C50001468A0631068846B088A401E44EA005040
:100C60001468A0630879C01C0C7C001B00EB800496
:100C70001F20A0401468A46B844310688463087923
:100C8000C01C0C7C001B00EB8004088880B2A040D4
:100C90001468A46B20431468A063524C8869A04276
:100CA00018D01068806820F470201468A060106864
:100CB00080688C6920431468A0601068806820F404
:100CC00040101468A06010688068CC6920431468E4
:100CD000A0600BE01068806820F470201468A060A9
:100CE0001068806820F440101468A060487D30B11E
:100CF0001068406840F480601468606005E0106827
:100D0000406820F4806014686060087D30B110682D
:100D1000406840F480501468606005E010684068E6
:100D200020F48050146860604868012804D00228CC
:100D30000FD0032827D119E0106840696FF30B002A
:100D40001468606110684069CC6820431468606171
:100D500026E0106880696FF30B001468A0611068CA
:100D60008069CC6820431468A06119E01068C069EC
:100D70006FF30B001468E0611068C069CC68204311
:100D80001468E0610CE01068006A6FF30B001468EF
:100D900020621068006ACC6820431468206200BF9B
:100DA00000BF114B114C1068A04206D108681228F0
:100DB00003D1586840F4800058600C4C1068A04281
:100DC00009D10868102802D00868112803D1586892
:100DD00040F40000586000BF002082F83C0000BFD3
:100DE00000BFFEE601000F0000230140002001408B
:100DF00038B502460020009000BF92F83C00012860
:100E000001D1022038BD012082F83C0000BF0868F3
:100E1000092816D91068C0680C780A3C04EB440510
:100E20000724AC40A0431468E0600C780A3C04EB53
:100E300044048868A0401468E46820431468E060B3
:100E400013E0106800690C7804EB44050724AC40FB
:100E5000A043146820610C7804EB44048868A04027
:100E6000146824692043146820614868072817D251
:100E70001068406B0C79641E04EB84051F24AC40A1
:100E8000A04314686063088880B20C79641E04EB88
:100E90008404A0401468646B20431468606331E0EC
:100EA00048680D2817D21068006B0C79E41F04EB1A
:100EB00084051F24AC40A04314682063088880B2D6
:100EC0000C79E41F04EB8404A0401468246B2043D5
:100ED0001468206316E01068C06A0C790D3C04EBBE
:100EE00084051F24AC40A0431468E062088880B2E7
:100EF0000C790D3C04EB8404A0401468E46A2043A0
:100F00001468E062194B1A4C1068A04206D10868B8
:100F1000122803D1586840F480005860144C1068BF
:100F2000A0421CD10868102802D00868112816D1E8
:100F3000586840F400005860086810280FD10D4828
:100F400000680D4CB0FBF4F000EB80004000009016
:100F500002E00098401E009000980028F9D100BFE0
:100F6000002082F83C0000BF00BF4BE70023014097
:100F7000002001404806002040420F0070B50446A2
:100F800000250CB9012070BD1549A06A884200D027
:100F900000BF206C30B9204600F024F800206064C7
:100FA00084F83C00206C00F0100088B9206C20F41C
:100FB000885040F0020020642046FFF7DFF900204F
:100FC0006064206C20F0020040F00100206400E02A
:100FD000012500BF002084F83C0000BF2846D2E76E
:100FE0000100000F10B586B00446142101A8FFF7D8
:100FF00031F949492068884244D100BF002000905F
:101000004648006840F4807044490860084600681B
:1010100000F48070009000BF00BF00BF002000906F
:101020003E481438006840F001003C49143908601B
:101030000846006800F00100009000BF00BF00BF3C
:10104000002000900846006840F002000860084652
:10105000006800F00200009000BF00BF0220019075
:10106000032002900020039001A92D4800F0F4F81D
:101070000320019002900020039001A9294800F06C
:10108000EBF847E028492068884243D100BF0020A0
:1010900000902248006840F400702049086008462B
:1010A000006800F40070009000BF00BF00BF002087
:1010B00000901A481438006840F0010017491439AC
:1010C00008600846006800F00100009000BF00BF03
:1010D00000BF002000900846006840F00200086051
:1010E0000846006800F00200009000BF00BF022028
:1010F0000190032002900020039001A9084800F00D
:10110000ABF80320019002900020039001A905484C
:1011100000F0A2F806B010BD0020014044380240A3
:1011200000000240000402400021014070B5034667
:101130000024002500BF5879012801D1022070BD8C
:101140000120587100BF022018711868046840F629
:10115000FE7090408443D1E9000640EA060505FA96
:1011600002F004431868046018680668C0209040C4
:101170008643186806600120187100BF002058716E
:1011800000BF00BFDBE710B504460CB9012010BD5D
:10119000207920B900206071204600F009F8022073
:1011A000207100202061012020710020EFE7000065
:1011B00010B586B00446142101A8FFF74BF8194971
:1011C000206888422BD100BF00200090164800689C
:1011D00040F00050144908600846006800F00050D4
:1011E000009000BF00BF00BF002000900E481038E4
:1011F000006840F001000C4910390860084600689A
:1012000000F00100009000BF00BF302001900320DB
:1012100002900020039001A9044800F01DF806B0D8
:1012200010BD000000740040403802400000024041
:1012300070B5044600F016F906462546681C10B144
:1012400004480078054400BF00F00CF9801BA84258
:10125000FAD370BD44060020F8B502460B460025BF
:10126000002400200021DCE0012606FA01F51E68BA
:1012700006EA0504AC4273D15E68012E08D05E68B0
:10128000022E05D05E68112E02D05E68122E13D198
:1012900090684F000326BE40B0434F00DE68BE405A
:1012A00030439060506801268E40B0431E79C6F3EB
:1012B00000168E4030435060D0684F000326BE4079
:1012C000B0434F009E68BE403043D0605E68022E3F
:1012D00002D05E68122E13D1CF0802F1200656F814
:1012E00027004E07F70E0F26BE40B0434F07FF0EF4
:1012F0001E69BE403043CF0802F1200646F82700A1
:1013000010684F000326BE40B0431E7906F0030666
:101310004F00BE40304310605E6806F08056B6F164
:10132000805F7DD100BF00260096404E366846F4AF
:1013300080463E4F3E603E46366806F48046009644
:1013400000BF00BF3A4E8F0856F827008E07370FB0
:101350000F26BE40B043374EB24202D1002624E0F1
:101360005EE0354EB24201D101261EE0334EB2425C
:1013700001D1022619E0324EB24201D1032614E017
:10138000304EB24201D104260FE02F4EB24201D1BD
:1013900005260AE02D4EB24201D1062605E02C4E6C
:1013A000B24201D1072600E008268F073F0FBE405A
:1013B00030431F4E8F0846F82700264E3068A04362
:1013C0005E6806F48036B6F5803F00D12043214E9A
:1013D0003060361D3068A0435E6806F40036B6F50E
:1013E000003F00D120431B4E361D3060361D306853
:1013F000A0435E6806F48016B6F5801F00D1204336
:10140000144E08363060361D3068A0435E6806F41E
:101410000016B6F5001F00D120430E4E0C3630608A
:10142000491C1029FFF420AFF8BD000044380240E9
:101430000838014000000240000402400008024059
:10144000000C02400010024000140240001802404C
:10145000001C0240003C01400AB1816101E00B0424
:101460008361704701480068704700003C06002017
:101470000348006803490978084401490860704737
:101480003C0600204406002010B50D48006840F4DA
:1014900000700B4908600846006840F480600860EE
:1014A0000846006840F480700860032000F0A6F849
:1014B000042000F007F800F02BF8002010BD000019
:1014C000003C024070B504460E4800784FF47A7133
:1014D000B1FBF0F00C490968B1FBF0F5284600F0CB
:1014E000A9FE08B1012070BD102C07D200222146B0
:1014F000501E00F045F80548046001E00120F2E7C5
:101500000020F0E7440600204806002040060020A6
:1015100008B500BF002000901048006840F48040EB
:101520000E4908600846006800F48040009000BF43
:1015300000BF00BF00200090081F006840F08050EE
:10154000091F08600846006800F08050009000BF46
:1015500000BF042000F052F808BD000044380240EB
:1015600001460846002809DB00F01F0301229A40CB
:1015700043099B0003F1E023C3F8002100BF70473B
:101580002DE9F05F80460D461646002706F0A6FAC4
:10159000074639462A46334601F00700C0F1070ADC
:1015A000BAF1040F02D94FF0040A01E0C0F1070AB2
:1015B000D14600F1040ABAF1070F02D24FF0000A37
:1015C00001E0A0F1030AD4464FF0010A0AFA09FA31
:1015D000AAF1010A0AEA020A0AFA0CFA4FF0010B10
:1015E0000BFA0CFBABF1010B0BEA030B4AEA0B0401
:1015F0002146404606F07AFABDE8F09F00BF00F0B1
:101600000702064B19684FF6FF031940044B0B43C2
:1016100043EA0221014B196000BF70470CED00E066
:101620000000FA05F8B5044600250026207800F0F1
:10163000010020B9207800F0040004282FD10020F8
:101640005B498866FFF70EFF054606E0FFF70AFFD5
:10165000401B022801D90320F8BD56480068C0F39A
:10166000C0600028F2D160688101207A41EA0070F0
:1016700050498431086001204D498866FFF7F2FE29
:10168000054606E0FFF7EEFE401B022801D90320C5
:10169000E2E748480068C0F3C0600028F2D0207834
:1016A00000F0020002287DD100BF002000904148D8
:1016B0004030006840F080503E49403108600846A4
:1016C000006800F08050009000BF00BF3A480068FA
:1016D00040F4807038490860FFF7C4FE054606E014
:1016E000FFF7C0FE401B022801D90320B4E73248AF
:1016F000006800F480700028F2D02E487030006836
:1017000000F440764EB3A08900F44070B04224D07B
:1017100028487030006820F440760120274908608E
:1017200000200860234870300660006800F0010067
:1017300098B1FFF797FE054608E0FFF793FE401BC0
:1017400041F28831884201D9032085E71948703079
:101750000068C0F340000028EFD000BFA08900F46B
:101760004070B0F5407F0CD112480830006820F47A
:10177000F810134AE168114008430E490831086027
:1017800007E00C480830006820F4F81009490831D7
:101790000860084870300068A189C1F30B01084354
:1017A000044900E002E07031086000BF002053E708
:1017B000000047420038024000700040400E47429F
:1017C000FFFCFF0F70B504460D460CB9012070BD3B
:1017D0005848006800F00F00A84209D255490D7022
:1017E0000846006800F00F00A84201D00120EEE793
:1017F000207800F0020002281DD1207800F00400BB
:10180000042805D14C48006840F4E0504A4908607B
:10181000207800F00800082805D14748006840F407
:101820006040454908604448006820F0F000A16825
:10183000084341490860207800F00100A8B36068BF
:10184000012807D13C4808380068C0F34040B8B9C7
:101850000120BCE76068022802D06068032807D135
:10186000354808380068C0F3406048B90120AEE749
:10187000314808380068C0F3400008B90120A6E7E5
:101880002D48006820F00300616808432A49086079
:10189000FFF7E8FD064609E0FFF7E4FD801B41F293
:1018A0008831884202D9032091E707E02248006886
:1018B00000F00C006168B0EB810FEDD11D480068AD
:1018C00000F00F00A84209D91A490D7008460068B7
:1018D00000F00F00A84201D0012078E7207800F046
:1018E0000400042807D11448006820F4E050E1689F
:1018F000084311490860207800F00800082808D142
:101900000D48006820F46040216940EAC1000A499E
:10191000086000F045F808490968C1F30311074A57
:10192000515CC8400649086006480068FFF7CAFDD8
:1019300000204CE7003C024008380240F0A00008BC
:10194000480600204006002001200149C864704775
:101950000000474201480068704700004806002028
:1019600000B5FFF7F7FF04490968C1F38221034A74
:10197000515CC84000BD00000838024000A10008CA
:1019800000B5FFF7E7FF04490968C1F34231034A94
:10199000515CC84000BD00000838024000A10008AA
:1019A0002DE9F047002400250026A14625480068BF
:1019B00000F00C0020B1042805D008283AD105E039
:1019C000DFF8849039E0DFF8849036E01D48001F8E
:1019D000006800F03F041B48001F006800F480000E
:1019E00078B11A481749091F0968C1F38811A0FB8B
:1019F00001700146224600233846FEF7E1FB05460A
:101A00000EE011480F49091F0968C1F38811A0FBB6
:101A100001700146224600233846FEF7D1FB0546F9
:101A20000848001F0068C0F30140401C4600B5FB99
:101A3000F6F902E0DFF8109000BF00BF4846BDE8AD
:101A4000F0870000083802400024F40000127A00F9
:101A5000F8B504460CB90120F8BD207800F001006B
:101A6000002874D0F948006800F00C0004280DD05C
:101A7000F648006800F00C00082813D1F348001F56
:101A8000006800F48000B0F5800F0BD1EF480838F3
:101A90000068C0F34040002859D06068002856D143
:101AA0000120D9E700BF6068B0F5803F08D1E74862
:101AB0000838006840F48030E449083908601EE0C6
:101AC0006068B0F5A02F0DD1E0480838006840F4F8
:101AD0008020DE49083908600846006840F48030FC
:101AE00008600CE0D9480838006820F48030D749F5
:101AF000083908600846006820F48020086000BFAC
:101B0000606890B1FFF7AEFC054606E0FFF7AAFC5F
:101B1000401B642801D903209EE7CC4808380068A0
:101B2000C0F340400028F1D011E0FFF79BFC0546D0
:101B300006E0FFF797FC401B642801D903208BE7E0
:101B4000C24808380068C0F340400028F1D120782E
:101B500000F0020002285FD1BC48006800F00C00D1
:101B600058B1BA48006800F00C0008281CD1B748EA
:101B7000001F006800F48000B0B9B448083800685D
:101B8000C0F3400020B1E068012801D0012063E7E4
:101B9000AE480838006820F0F800216940EAC1002A
:101BA000AA490839086037E0E06800B30120A84975
:101BB0000860FFF757FC054606E0FFF753FC401BA3
:101BC000022801D9032047E7A04808380068C0F37D
:101BD00040000028F1D09D480838006820F0F80047
:101BE000216940EAC10099490839086014E00020E1
:101BF00097490860FFF736FC054606E0FFF732FC20
:101C0000401B022801D9032026E7904808380068C5
:101C1000C0F340000028F1D1207800F00800082827
:101C20002CD16069A8B101208A490860FFF71AFC2D
:101C3000054606E0FFF716FC401B022801D90320E9
:101C40000AE782486C300068C0F340000028F1D0F9
:101C500014E000207F490860FFF704FC054606E019
:101C6000FFF700FC401B022801D90320F4E6774867
:101C70006C300068C0F340000028F1D1207800F0FB
:101C80000400042870D1002770483830006800F044
:101C9000805090B900BF002000906C483830006838
:101CA00040F080506949383108600846006800F00B
:101CB0008050009000BF00BF01276748006800F413
:101CC0008070B0B96448006840F480706249086070
:101CD000FFF7C8FB054606E0FFF7C4FB401B0228E0
:101CE00001D90320B8E65C48006800F48070002841
:101CF000F2D000BFA068012808D1544868300068BD
:101D000040F001005149683108601DE0A0680528D5
:101D10000DD14E486830006840F004004B496831EE
:101D200008600846006840F0010008600CE0474881
:101D30006830006820F001004449683108600846B6
:101D4000006820F00400086000BFA068A8B1FFF799
:101D500089FB054609E0FFF785FB401B41F288310E
:101D6000884202D9032077E626E0384868300068C8
:101D7000C0F340000028EED013E0FFF773FB0546E8
:101D800008E0FFF76FFB401B41F28831884201D920
:101D9000032061E62D4868300068C0F34000002849
:101DA000EFD1012F07D129483830006820F080504A
:101DB00026493831086000BFA069002845D0234873
:101DC000006800F00C0008285DD0A069022845D109
:101DD00000201F490866FFF745FB054606E0FFF7B0
:101DE00041FB401B022801D9032035E6174808387B
:101DF0000068C0F340600028F1D1D4E9070108432E
:101E0000616A40EA81110122A06AC2EB500041EAF6
:101E100000412C20005D41EA00600C49091F086068
:101E200001200B490866FFF71DFB054606E0FFF79A
:101E300019FB401B022801D903200DE6034808388E
:101E40000068C0F340600028F1D03FE0083802404D
:101E500000004742800E47420070004000201C49AD
:101E60000866FFF7FFFA054606E0FFF7FBFA401B9E
:101E7000022801D90320EFE516480068C0F340604E
:101E80000028F2D122E0A069012800D1E4E5114840
:101E9000001D066806F48001E069814214D106F055
:101EA0003F01206A81420FD147F6C0703040616A1D
:101EB000884209D106F44031A06A814204D106F07B
:101EC0007061E06A814201D00120C5E50020C3E5D0
:101ED000000047420038024010B504460CB901200A
:101EE00010BD607F20B900202077204600F060F808
:101EF0000220607700BFCA20216848625320216811
:101F0000486200BF204603F094FE40B100BFFF20AE
:101F10002168486200BF042060770120E0E7206864
:101F20008068224908402168886021696068084308
:101F300061690843216889680843216888602168CD
:101F4000E068086120680169208941EA0040216851
:101F500008612068C06820F080002168C86020689F
:101F6000806800F0200060B9204600F045F940B1DB
:101F700000BFFF202168486200BF04206077012075
:101F8000AEE72068006C20F4802021680864206897
:101F9000006CA16908432168086400BFFF20216824
:101FA000486200BF01206077002099E7BFFF8FFFE4
:101FB000034A0168914202D10121024A116070472F
:101FC000002800403C0E47422DE9F04104460D46F2
:101FD0001646002700BF207F012802D10220BDE85D
:101FE000F0810120207700BF022060774EB9687829
:101FF00000F01000102804D1687800F0EF000A30DB
:10200000687086B9E87803F007FE0304687803F087
:1020100003FE43EA0023A87803F0FEFD034328787B
:1020200043EA403709E0E8780004697840EA012093
:10203000A9780843297840EA413700BFCA202168BF
:10204000486253202168486200BF204603F0F1FD3A
:1020500060B100BFFF202168486200BF04206077A4
:1020600000BF0020207700BF0120B8E716483840A5
:10207000216848602068C06820F080002168C8603E
:102080002068806800F0200080B9204600F0B4F895
:1020900060B100BFFF202168486200BF0420607764
:1020A00000BF0020207700BF012098E700BFFF207D
:1020B0002168486200BF0120607700BF00202077C0
:1020C00000BF00BF8BE700003FFFFF002DE9F0419C
:1020D00004460D461646002700BF207F012802D186
:1020E0000220BDE8F0810120207700BF0220607748
:1020F000CEB92068806800F0400000B102E0002006
:10210000E87000BF287803F087FD0304687803F0C7
:1021100083FD43EA0023A87803F07EFD0343E878BB
:1021200043EA004712E02068806800F0400000B1F8
:1021300002E00020E87000BF28780004697840EAD7
:102140000120A9780843E97840EA014700BFCA2086
:102150002168486253202168486200BF204603F08E
:1021600068FD60B100BFFF202168486200BF042005
:10217000607700BF0020207700BF0120B1E71D4835
:102180003840216808602068806820F48020216839
:102190008860D5E9030108432168896808432168FC
:1021A00088602068C06820F080002168C8602068CE
:1021B000806800F0200080B9204600F01DF860B172
:1021C00000BFFF202168486200BF0420607700BF85
:1021D0000020207700BF012083E700BFFF20216897
:1021E000486200BF0120607700BF0020207700BF59
:1021F00000BF76E77F7F7F0070B50446002520682A
:10220000C06820F0A0002168C860FFF72BF90546E0
:1022100007E0FFF727F9401BB0F57A7F01D90320CB
:1022200070BD2068C06800F020000028F1D00020B8
:10223000F6E7704770B504462546681EB0F1807F0A
:1022400001D301200FE0681E4FF0E02148610F210B
:102250004FF0FF3005F04AFC00204FF0E02188618C
:1022600007200861002070BD10B5FFF7E2FF10BD28
:102270007047704710B50346002200BF93F83C003A
:10228000012801D1022010BD012083F83C0000BFCD
:1022900022F0FF00CC6840EA040222F440708C680F
:1022A00040EA040222F480604C6840EA040222F40E
:1022B00000600C6840EA040222F480500C6940EA95
:1022C000040222F400504C6940EA040222F48040E7
:1022D000CC6940EA04021868426400BF002083F819
:1022E0003C0000BF00BFCEE730B502460B4600BF42
:1022F00092F83C00012801D1022030BD012082F873
:102300003C0000BF022082F83D001068446810685D
:10231000816824F070041868044310684460184D04
:102320001068A8421BD01068B0F1804F17D0154D2F
:102330001068A84213D0144D1068A8420FD0134D56
:102340001068A8420BD0124D1068A84207D0114D5A
:102350001068A84203D0104D1068A84205D121F0A2
:1023600080015868014310688160012082F83D00B7
:1023700000BF002082F83C0000BF00BFBDE70000A6
:10238000000001400004004000080040000C004034
:1023900000040140004001400018004010B5044610
:1023A0000CB9012010BD94F83D0028B9002084F834
:1023B0003C00204600F00CF8022084F83D00211D6E
:1023C000206803F0ADFF012084F83D000020E9E71C
:1023D00010B586B00446142101A8FDF73BFF2A4939
:1023E0002068884230D100BF002000902748006854
:1023F00040F00100254908600846006800F001002F
:10240000009000BF00BF00BF002000901F4814389C
:10241000006840F002001D49143908600846006851
:1024200000F00200009000BF00BF8814019002205D
:10243000029001200390002004900120059001A942
:102440001348FEF709FF1DE012492068884219D1A0
:1024500000BF002000900D48001F006840F02000E1
:102460000A49091F08600846006800F02000009033
:1024700000BF00BF002211463720FFF781F8372048
:10248000FFF76EF806B010BD00000140443802406E
:1024900000040240001400402DE9F04104460D46BE
:1024A00014B90120BDE8F08194F83D0028B900205E
:1024B00084F83C00204600F047F8022084F83D00F4
:1024C0002068806844F20701884321688860211DE4
:1024D000206803F025FF2068D0F80880206886690E
:1024E0002068076A286840EA080840F203308643FB
:1024F000A969A86840EA0120064340F60C408643DB
:102500004FF2F0008643E969E86840EA012006439B
:1025100028690001296A40EA0130064327F02207B2
:1025200027F088076969686840EA01100743206856
:10253000C0F808802068866120680762012084F85E
:102540003D000020AEE7000010B586B0044614211F
:1025500001A8FDF77FFE1A49206888422ED100BFEE
:10256000002000901748006840F0020015490860FC
:102570000846006800F00200009000BF00BF00BFE6
:10258000002000900F481038006840F001000D490D
:10259000103908600846006800F00100009000BF94
:1025A00000BFC02001900220029000200390049000
:1025B0000220059001A90448FEF74EFE06B010BDAA
:1025C000000400404038024000000240704710B54F
:1025D000044620680069C0F34000D8B12068C06894
:1025E000C0F34000B0B16FF0020021680861012023
:1025F00020772068806900F0030018B12046FFF7BB
:10260000E5FF05E0204600F0FBF8204600F098F9D1
:102610000020207720680069C0F38000D8B12068CE
:10262000C068C0F38000B0B16FF004002168086199
:10263000022020772068806900F4407018B120469D
:10264000FFF7C4FF05E0204600F0DAF8204600F06E
:1026500077F90020207720680069C0F3C000D8B166
:102660002068C068C0F3C000B0B16FF008002168F6
:102670000861042020772068C06900F0030018B1C9
:102680002046FFF7A3FF05E0204600F0B9F82046FA
:1026900000F056F90020207720680069C0F3001090
:1026A000D8B12068C068C0F30010B0B16FF010005E
:1026B00021680861082020772068C06900F4407014
:1026C00018B12046FFF782FF05E0204600F098F899
:1026D000204600F035F9002020772068006900F0DE
:1026E000010058B12068C06800F0010030B16FF0FF
:1026F000010021680861204600F023F92068006984
:10270000C0F3C01058B12068C068C0F3C01030B129
:102710006FF08000216808612046FFF7A9FD20685E
:102720000069C0F3801058B12068C068C0F3801001
:1027300030B16FF0400021680861204600F038F9A0
:1027400020680069C0F3401058B12068C068C0F329
:10275000401030B16FF02000216808612046FFF77B
:1027600088FD10BD10B586B00446142101A8FDF700
:1027700071FD1F492068884238D100BF00200090B9
:102780001C48006840F001001A49086008460068CB
:1027900000F00100009000BF00BF00BF00200090CB
:1027A0000846006840F0020008600846006800F033
:1027B0000200009000BF00BF4FF4E06001900220D3
:1027C0000290039004900120059001A90A48FEF7A9
:1027D00043FD4FF46040019002200290039004906A
:1027E0000120059001A90548FEF736FD06B010BD91
:1027F0000000014030380240000002400004024066
:10280000704770B504460D46164600BF94F83C006C
:10281000012801D1022070BD012084F83C0000BFD6
:10282000022084F83D0036B1042E1BD0082E31D092
:102830000C2E5ED145E02946206803F0E9FD2068B2
:10284000806940F00800216888612068806920F074
:10285000040021688861206880692969084321682B
:10286000886147E02946206803F00AFE20688069F5
:1028700040F40060216888612068806920F48060ED
:102880002168886120688069296940EA01202168FF
:1028900088612FE02946206803F030FE2068C06977
:1028A00040F008002168C8612068C06920F0040079
:1028B0002168C8612068C069296908432168C86126
:1028C00018E02946206803F055FE2068C06940F4EE
:1028D00000602168C8612068C06920F480602168B8
:1028E000C8612068C069296940EA01202168C8617F
:1028F00000E000BF00BF012084F83D0000BF0020C1
:1029000084F83C0000BF00BF85E710B504460CB951
:10291000012010BD94F83D0028B9002084F83C0047
:10292000204600F00CF8022084F83D00211D2068AC
:1029300003F0F6FC012084F83D000020E9E7704731
:102940007047704770B504460D4600BF94F83C00D0
:10295000012801D1022070BD012084F83C0000BF95
:10296000022084F83D002946204603F02DFE48B1A0
:10297000012084F83D0000BF002084F83C0000BF27
:102980000120E8E72068C06820F040002168C860A6
:102990002068C06820F480402168C860012084F865
:1029A0003D0000BF002084F83C0000BF00BFD2E71C
:1029B000704710B504460CB9012010BDA06900B1E4
:1029C00000E000BF94F8390028B9002084F83800EE
:1029D000204600F027F8242084F839002068C068D9
:1029E00020F400502168C860204604F037F82068C1
:1029F000006920F49040216808612068406920F057
:102A00002A00216848612068C06840F400502168AD
:102A1000C8600020E063202084F8390084F83A0080
:102A20000020CAE710B586B00446142101A8FDF7BE
:102A300011FC1B49206888422FD100BF0020009064
:102A40001848006840F4802016490860084600686D
:102A500000F48020009000BF00BF00BF0020009065
:102A600010481038006840F002000E491039086024
:102A70000846006800F00200009000BF00BF4FF45D
:102A800040600190022002900020039004900720F3
:102A9000059001A90448FEF7DFFB06B010BD000059
:102AA00000480040403802400004024003F010FE9D
:102AB00032E01A49D1F8200100F0A8F948B11748CE
:102AC00004F0CAF91549D1F8200100F097F904F093
:102AD000FFFD1249D1F8200100F0A2F910B10F4812
:102AE00004F089FA0D49D1F8200100F094F998B169
:102AF0000A49D1F8200100F098F90546294607480F
:102B000004F0B6F90488012C01D104F0DBFD022C9D
:102B100001D104F0DDFD00BFCBE700009C040020E4
:102B2000816841F0010181607047826B22F440129C
:102B30000A4382637047826822F4702201F4702392
:102B40001A438260704782680A43826070478168D6
:102B500021F44011816070470146C86C80B2704713
:102B600030B501F470044FF4700595FAA5F5B5FA87
:102B700085F5EC4000F1080505EB84031C684FF671
:102B8000F075AC4314431C6030BD10B5026801F011
:102B900010040123A3401A43026010BD426801F0F3
:102BA00003031A43426070470249C9680143014A5E
:102BB000D1607047002004E008B541F48032C26162
:102BC000C16141F48032C261C269009200BF08BD98
:102BD0000A048261704781617047026A8A43026217
:102BE0007047026A0A43026270470246106A084050
:102BF000884201D1012070470020FCE76FF00101FD
:102C0000016170476FF0010101617047416C41F44F
:102C1000004141647047C16841F00101C1607047E3
:102C2000416941F0010141617047416941F0010191
:102C300041617047F0B503461446012901D10025D2
:102C400016E0042901D1012512E0102901D1022545
:102C50000EE0402901D103250AE0B1F5807F01D1C2
:102C6000042505E0B1F5806F01D1052500E00625BA
:102C70002846094D2E5C03F1180572191568074E98
:102C8000375CF026BE40B543260C044F3F5CBE4087
:102C900035431560F0BD000008A1000816A100082A
:102CA0000146086900F001007047000070B5024657
:102CB000012901D1002416E0042901D1012412E0E8
:102CC000102901D102240EE0402901D103240AE099
:102CD000B1F5807F01D1042405E0B1F5806F01D109
:102CE000052400E006242346064CE55C02F11804A6
:102CF00028190468044DEE5C0825B540AC43046017
:102D000070BD000033A100083AA1000870B502466A
:102D1000012901D1002416E0042901D1012412E087
:102D2000102901D102240EE0402901D103240AE038
:102D3000B1F5807F01D1042405E0B1F5806F01D1A8
:102D4000052400E006242346064CE55C02F1180445
:102D500028190468044DEE5C0825B5402C43046036
:102D600070BD000033A100083AA10008416370471C
:102D700081637047C163704701647047F0B50346D3
:102D80001446012901D1002516E0042901D10125AD
:102D900012E0102901D102250EE0402901D10325BE
:102DA0000AE0B1F5807F01D1042505E0B1F5806F1F
:102DB00001D1052500E006252846094D2E5C03F1CA
:102DC000180572191568074E375C7326BE40B54367
:102DD000044E365C04FA06F635431560F0BD00007B
:102DE00033A100083AA100084162704701637047AF
:102DF000426822F070020A434260704708B50168D9
:102E0000009100BF4168009100BF08BD01460868FD
:102E1000C0F3C000704701460868C0F34010704717
:102E200001460868C0F3C010704701464868C0B248
:102E3000704738B50446606803F064F80090A068F5
:102E40000099016138BD10B504460121206803F0E6
:102E5000CAF810BD70B50446002C3ED0207E012873
:102E60003BD10025207B012804D0022812D0032862
:102E70002AD11FE00020A16881F8240001216068A8
:102E800003F076F8E28AB4F90E10606802F0D6FF1B
:102E900005461AE00020A16881F82400002160683E
:102EA00003F066F8E28AB4F91010606802F0C6FF19
:102EB00005460AE00120A16881F82400A068D4F842
:102EC00012100161012500E000BF00BF15B1022012
:102ED000207601E00320207600BF70BD012303733C
:102EE000C181C28203764376704702230373018255
:102EF000C2820123037600234376704710B504464F
:102F0000206803F03FF810BD70B50446606803F018
:102F100015F80546284602F0E5FE70BD0146487EDC
:102F2000704708B5014688680068009008BD08B57C
:102F3000014688684068009008BD08B50146886869
:102F4000C068009008BD08B5014688680069009017
:102F500008BD014600200A7B012A01D1B1F90E000B
:102F6000704710B50446606802F0D9FF10BD10B577
:102F70000446206803F02FF810BD01468868B0F9B8
:102F80001E00704708B501468868D0F81A00009006
:102F900008BD08B501468868D0F81600009008BD45
:102FA00010B501604260836000240473C481048210
:102FB000C482047610BD03B503210173BDF804106B
:102FC0004182BDF8062082820121017600214176EE
:102FD0000CBD8268518282689182704770B5044648
:102FE0000321206802F0FFFF05460DB10120207685
:102FF000284670BD10B504460721206802F0F3FF93
:1030000010BD10B50446606802F0B8FF10BD0000A6
:1030100031B581B0BDF80400ADF80000BDF8040082
:1030200044F6E61510FB05F4BDF8060010FB05F3A9
:103030006042C01AC01AC213B2F5004F02DB47F655
:10304000FF7105E012F5004F01DA084900E011B206
:10305000ADF80210BDF9020010F5004F03D148F29F
:103060000100ADF8020000983CBD00000080FFFFA9
:103070002DE9F34782B00E46304600F083F8009009
:10308000BDF80800BDF8001010FB01F9BDF80A00FA
:10309000BDF8021010FB01FAA9EB0A00C413B4F545
:1030A000004F02DB47F6FF7505E014F5004F01DA2B
:1030B0001B4D00E025B2ADF80450BDF9040010F539
:1030C000004F03D148F20100ADF80400BDF808003C
:1030D000BDF8021010FB01F7BDF80A00BDF80010A2
:1030E00010FB01F807EB0800C413B4F5004F02DB36
:1030F00047F6FF7505E014F5004F01DA084D00E0D2
:1031000025B2ADF80650BDF9060010F5004F03D109
:1031100048F20100ADF80600019804B0BDE8F08760
:103120000080FFFF2DE9F34182B00C46204600F0FD
:1031300029F80190BDF80800BDF8041010FB01F556
:10314000BDF80A00BDF8061010FB01F6A819C0135F
:1031500000B2ADF80000BDF80800BDF8061010FB85
:1031600001F7BDF80A00BDF8041010FB01F8A8EB48
:103170000700C01300B2ADF80200009804B0BDE82B
:10318000F081000018B5024602F5004399B20846E6
:10319000CC1701EB9464A11101F4407038B3B0F581
:1031A000807F36D0B0F5007F03D0B0F5407F40D1AE
:1031B0000DE0C8B2214C34F81000ADF80200C8B2DE
:1031C000C0F1FF0034F81000ADF8000032E0C8B2E2
:1031D000C0F1FF00194C34F81000ADF80200C8B27D
:1031E00034F81000404200B2ADF8000022E0C8B24E
:1031F000124C34F81000404200B2ADF80200C8B2E0
:10320000C0F1FF0034F81000404200B2ADF80000F9
:1032100010E0C8B2C0F1FF00084C34F81000404282
:1032200000B2ADF80200C8B234F81000ADF80000EA
:1032300000E000BF00BF009818BD00002A80000811
:103240002DE9F84F04460D4616461F46DDE90B9A58
:10325000DDF828802563C4F8C490C4F8C0A00848ED
:10326000084B094A214600902846FDF7A1FB6663FA
:10327000A763C4F83C80204600F061FCBDE8F88FED
:103280008D32000899320008293B000810B5044629
:10329000204600F054FC10BD2DE9F04F8BB00446E1
:1032A0000F461546994601200A90002009904FEAE2
:1032B0005718B8F1000F16D0A8F1010200212046DE
:1032C00004F02AFA60B107F01F07D4F8C40050B127
:1032D000A8F101020021D4F8C40004F01DFA02E0B4
:1032E00000270B200890132F7CD2DFE807F0F20AAA
:1032F000F3F07B7BEFEEEDECEBEAE9E87B7B7B7BAD
:10330000E7002E7805200890472E6CD028DC0F2E81
:103310006AD00BDC0F2E68D2DFE806F055CBCB6805
:10332000CB8586878388898A848B8C00172E6ED004
:1033300009DCA6F110000728EDD2DFE800F09D9E21
:10334000BABA7D7E7F001D2E62D004DC182E77D0A5
:103350001C2E4AD152E0412E73D0462EF9D18DE079
:10336000652E79D01EDC572E71D00EDC542E6BD01A
:1033700006DC482E7ED04F2E64D0532EE9D162E079
:10338000552E62D0562EE4D160E05B2E79D004DC5D
:10339000582E5DD0592EDCD15BE0612E5AD0642EC0
:1033A000D7D158E0A6F174001528B4D2DFE800F0B8
:1033B0001F6A6B6C6D6E8181816F708181818181EB
:1033C00081815556570095F801A052463146D4F8F0
:1033D000C40004F0A1F952463146204604F09CF99D
:1033E000099069E084E34AE025E062E000BF6A7882
:1033F0003146204604F090F909905DE06A7800219A
:10340000D4F8C40004F07CF90120099054E016E0DF
:103410006A780121D4F8C40004F072F901200990FF
:103420004AE000BF00BF00BF00BF00BF00BF00BF39
:1034300000BF00BF00BF00BF00BF00BF00BF00BF94
:1034400000BF00BF00BF00BF00BF00BF00BF00BF84
:1034500000BF00BF00BF00BF00BF00BF00BF687853
:10346000A97800EB012A52463146204604F054F96F
:10347000099021E004E004E000BF00BF00BF00BFEE
:1034800000BF00BF00BF00BF00BF00BF00BF00BF44
:103490006878A97800EB0120E97800EB01402979F0
:1034A00000EB016A52463146204604F035F9099096
:1034B00002E00220089000BF00BF1CE352E252E28B
:1034C000F4E2DCE2C8E29CE264E235E2FEE1F4E12F
:1034D00000E00CE32E7803200890892E00D200E053
:1034E000E6E1B00078444068874400002402000010
:1034F00044030000260200002802000046030000EA
:10350000B0020000B4020000B8020000BA020000DD
:10351000BC020000BE020000C0020000C2020000A7
:10352000C4020000C6020000C8020000CA02000077
:10353000CC020000CE020000D0020000D402000045
:10354000D2020000D6020000D8020000DA02000019
:10355000DC020000DE020000E00200006002000069
:103560008A02000048030000E2020000E4020000BA
:10357000E60200002A020000C4030000C4030000A9
:10358000C4030000C4030000C4030000C40300001F
:10359000C4030000C4030000C4030000C40300000F
:1035A000C4030000C4030000C4030000C4030000FF
:1035B000C4030000C4030000C4030000C4030000EF
:1035C000C4030000C4030000C4030000C4030000DF
:1035D000C4030000C4030000C4030000C4030000CF
:1035E000C4030000C4030000C4030000C4030000BF
:1035F000E8020000C4030000C4030000C40300008C
:10360000C40300004A0300004C0300004E03000006
:10361000EA020000EC020000EE020000F0020000EE
:103620002C02000050030000F2020000F40200002F
:10363000F6020000F8020000FA020000FC0200009E
:10364000FE0200000003000002030000040300006B
:10365000060300002E02000052030000C403000015
:10366000080300000A0300000C0300000E03000022
:1036700010030000C4030000C40300001203000094
:103680001403000030020000320200005403000066
:1036900056030000580300005A0300005C030000BA
:1036A00034020000B2020000B60200007403000001
:1036B000C4030000160300001803000036020000D7
:1036C0005E0300006003000062030000640300006A
:1036D00066030000680300006A0300006C0300003A
:1036E0006E03000070030000720300003802000047
:1036F000C40300003A0200009A0300009C0300008B
:103700009E0300001A0300001C0300001E030000BB
:1037100000BF00BF00BF00BF00BF00BF00BF00BFB1
:1037200000BF00BF00BF09AA3146204603F04AFD92
:1037300007909DF82400012807D1012307AAF02152
:10374000D4E90C0CE04700200A90B4E0D4F8C4009F
:1037500080B10021D4F8C40003F024FD07900123B8
:1037600007AAF021D4E90C0CE047012009900020C1
:103770000A9000BF9FE0D4F8C40070B10121D4F8D2
:10378000C40003F00FFD0790012307AAF021D4E93C
:103790000C0CE0470120099000BF8CE000BF00BF87
:1037A00000BF00BF00BF00BF00BF00BF00BF00BF21
:1037B00000BF00BF00BF00BF00BF00BF00BF00BF11
:1037C00000BF00BF00BF00BF00BF00BF00BF00BF01
:1037D00000BF00BF00BF00BF00BF00BF00BF00BFF1
:1037E00000BF00BF00BF00BF00BF00BF00BF00BFE1
:1037F00000BF00BF00BF00BF00BF00BF00BF00BFD1
:1038000000BF00BF00BF00BF00BF09AA314620466D
:1038100003F0D8FC07909DF82400012807D102236B
:1038200007AAF021D4E90C0CE04700200A9042E0FE
:1038300000BF00BF00BF00BF00BF00BF00BF00BF90
:1038400000BF00BF00BF00BF00BF00BF00BF00BF80
:1038500000BF00BF00BF00BF00BF00BF00BF00BF70
:1038600009AA3146204603F0ADFC07909DF82400DC
:10387000012807D1042307AAF021D4E90C0CE04762
:1038800000200A9017E000BF00BF09AA3146204679
:1038900003F098FC07909DF82400012807D1042329
:1038A00007AAF021D4E90C0CE04700200A9002E0BE
:1038B0000320089000BF00BF1DE12E78072008906C
:1038C0003146204603F0FAFB099014E1002604E09B
:1038D00000200DF80600701CC6B2202EF8DB002672
:1038E00007E0D4F8C000815DF01C0DF80010701CDA
:1038F000C6B21D2E04DAD4F8C000805D0928F0D1CC
:10390000701DD4F8C010085C8DF80000F01DD4F8CC
:10391000C010085C8DF8010006F10900D4F8C01051
:10392000085C8DF8020020236A46F021D4E90C0CD3
:10393000E04701200990DEE02879697900EB012059
:1039400086B22878697800EB0120A97800EB014065
:10395000E97800EB016A32465146204603F0F6FB57
:103960000990C8E0C7E02879697900EB012086B2A8
:103970002878697800EB0120A97800EB0140E9780C
:1039800000EB016A32460FFA8AF1204603F0F8FB99
:103990000990B0E003A80090297804AB05AA20465E
:1039A00003F024FEBDF91000C0EB001080000A21D6
:1039B00090FBF1F6F0B28DF81800300A8DF819007E
:1039C000300C8DF81A00300E8DF81B00BDF80C007D
:1039D000C0B28DF81C00BDF80C00000A8DF81D0067
:1039E000BDF81400C0B28DF81E00BDF8140000121E
:1039F0008DF81F00082306AAF021D4E90C0CE0473B
:103A000079E02E78E879297A00EB01201FFA80FA14
:103A10006878A97800EB0120E97800EB014029796A
:103A200000EB01600690069800EB800040003C210E
:103A300090FBF1F000B207906879A97900EB0120C2
:103A40000FFA80FBCDF800B0524631462046079B66
:103A500003F011FF09904EE02878697800EB01200F
:103A600006B2A878E97800EB01200FFA80FA5246F6
:103A70003146204603F032FE012009903BE00695D6
:103A80008DF81C900C200890264906A803F097FB9F
:103A900009909DF8240040B122490B790A68F02171
:103AA000D4E90C06B04700200A9024E0002606E086
:103AB000D4F8C000805D0DF80600701CC6B2202E40
:103AC00004DAD4F8C000805D0028F1D104E00020C1
:103AD0000DF80600701CC6B2202EF8DB20236A46C3
:103AE000F021D4E90C0CE0470120099003E002E04A
:103AF0000120089000BF00BF0A9878B19DF824000B
:103B000030B100231A46F021D4E90C06B04705E095
:103B1000012308AAFF21D4E90C06B0470BB0BDE889
:103B2000F08F00000C0000202DE9F04104460D4606
:103B300016461F46204600F002F8BDE8F08110B599
:103B40000446E16B206B8847802084F8C800A16B95
:103B5000206B884710BD000010B502490868FFF7C8
:103B600072F910BD0000002010B502490868FFF787
:103B7000FEF910BD0000002010B50548007828B1FE
:103B800000F008F802F0F0FE03F070FD10BD000038
:103B90001E06002010B51148007801281DD11048DC
:103BA000008828B10E480088401E0D49088004E0B6
:103BB00002F0B4FD01200A4908800A48008820B1BB
:103BC00008480088401E074908800748008820B13F
:103BD00005480088401E0449088010BD1E060020CC
:103BE000180600201A0600201C06002010B5024905
:103BF0000868FFF7F3F910BD0000002010B5024976
:103C00000868FFF7F7F910BD00000020F8B504467A
:103C10000D46604802F0E2F900205F4908705F48F5
:103C20005F4908605F486049086001F0A5FA04F048
:103C300041F95E4800F0E2FE5C485D4908605D487D
:103C40005D4908605D48FCF713FE5B485B4B5C4ACE
:103C500001685C48FCF7F2FC5A485B490860544A2A
:103C60001168554A1068554A02F072F9544803F039
:103C7000D8FE564800F0C2FE554800F0BFFE53483B
:103C800054490860524854490860544854490860EF
:103C90000846006803F01BFF52485349086050482B
:103CA00000680968C1F8100150484F490968C1F817
:103CB0000C014F4800F07BFC4D484E4908604E48CF
:103CC0004E490860086801F09FFF0020FCF7A6FE3F
:103CD0000120464981F824003749086802F012F9AA
:103CE00000904248009901613349086802F00AF9DE
:103CF0000090BDF902003D49888241484149086071
:103D00002D490A683F49394B08682249FFF748F9AD
:103D10002949086802F00AF906463A49002208686B
:103D20003146FFF7DBF8374800682060204800681C
:103D3000354908602748006848602748006888605F
:103D40000020C860184800680861002048611B48CE
:103D500088610020C86108621748006848620D4801
:103D6000886224480068C8621D4800680863002013
:103D7000486388631C480068C8630020086448647E
:103D80008864C864086508462860012002490870F4
:103D9000F8BD0000DC0500201E060020E80300201E
:103DA00010060020E4010020000600202C01002065
:103DB000E8050020B0010020E40500209802002062
:103DC0006002002014030020F405002058010020A8
:103DD00084010020EC050020F0050020580300209D
:103DE000F8050020140000200C0600201008002018
:103DF00030030020FC050020D00300201406002022
:103E000038080020D80500205408002030B50246AC
:103E10000C460021B2F8000122F8104002F5807231
:103E2000108850801088401C10801088A2F5807285
:103E3000802802D30020A2F80001002304E032F918
:103E400013000144581C83B2802BF8D30846CD17C9
:103E500001EB5565E91108B2A2F80401204630BD16
:103E6000002104E0002220F811204A1C91B2802990
:103E7000F8D30022A0F80021A0F8022170470146E3
:103E8000B1F904017047000000B58DB0202105A8EC
:103E9000FCF7E0F900200190029003900490304874
:103EA000304908604FF48030486000212D4881601F
:103EB000012101610021017680F82010C1622A49A8
:103EC0008162C902C1600121C161002180F8301006
:103ED00001214161FDF752F808B1FCF735FD0820DA
:103EE00005900120069003200990002007904FF4D0
:103EF00080100C9000200B908DF8290001208DF887
:103F000028000020089005A91648FCF75DFE08B1BE
:103F1000FCF71AFD092005900220069005A911481A
:103F2000FCF752FE08B1FCF70FFD012005900320BD
:103F3000069005A90B48FCF747FE08B1FCF704FD05
:103F400008200190012002900020039001A905485B
:103F5000FCF74EFF08B1FCF7F7FC0DB000BD000008
:103F6000002001404C0600200100000F00B58DB07C
:103F7000202105A8FCF76EF9002001900290039023
:103F800004903048304908604FF480304860002188
:103F90002D488160012101610021017680F8201007
:103FA000C1622A498162C902C1600121C161002147
:103FB00080F8301001214161FCF7E0FF08B1FCF707
:103FC000C3FC0820059001200690032009900020E2
:103FD00007904FF480100C9000200B908DF8290072
:103FE00001208DF828000020089005A91648FCF74C
:103FF000EBFD08B1FCF7A8FC092005900220069013
:1040000005A91148FCF7E0FD08B1FCF79DFC012073
:1040100005900320069005A90B48FCF7D5FD08B1D3
:10402000FCF792FC082001900120029000200390F0
:1040300001A90548FCF7DCFE08B1FCF785FC0DB0D2
:1040400000BD000000210140940600200100000F87
:104050001CB50020009001900E480F4908600846EA
:10406000FDF791F808B1FCF76FFC3C2000900220AE
:104070000190002269460848FDF758F808B1FCF79E
:1040800063FC102269460448FDF750F808B1FCF7BC
:104090005BFC1CBD00740040DC06002000B587B04E
:1040A000142102A8FCF7D6F800BF0020019049486F
:1040B000006840F00200474908600846006800F0C8
:1040C0000200019000BF00BF00BF00200190084621
:1040D000006840F0010008600846006800F0010038
:1040E000019000BF00BF00BF00200190084600689B
:1040F00040F0080008600846006800F008000190E1
:1041000000BF00BF00BF002001900846006840F0DB
:10411000040008600846006800F00400019000BF39
:1041200000BF00BF002001900846006840F08000FA
:1041300008600846006800F08000019000BF00BFE2
:10414000012228212448FDF787F901220C21234868
:10415000FDF782F9012220212148FDF77DF94FF476
:10416000E0700290002003900120049002A91A48F8
:10417000FDF772F82820029001200390002004909F
:104180000320059002A91448FDF766F80420029068
:10419000144803900120049002A91348FDF75CF82D
:1041A0000C20029001200390002004900320059031
:1041B00002A90A48FDF750F8202002900120039040
:1041C000002004900320059002A90548FDF744F85B
:1041D00007B000BD30380240000402400000024039
:1041E0000008024000002110000C024038B5FDF725
:1041F000B1FB4FF4FA61B0FBF1F42046FEF71AF878
:1042000007490848FFF702FD03F01AFD0648044B72
:10421000044A01210090054803F04EFB38BD000020
:104220000400002000000020AF7F000808000020EC
:1042300010B5002202211220FDF7A2F91220FDF78D
:104240008FF9002211461920FDF79AF91920FDF780
:1042500087F9012204211820FDF792F91820FDF7B3
:104260007FF9002203211D20FDF78AF91D20FDF7AB
:1042700077F9012203212720FDF782F92720FDF796
:104280006FF9002203210820FDF77AF90820FDF7D5
:1042900067F910BD00B587B0142102A8FBF7DAFF5B
:1042A000002001901B481C490860002048607F21C5
:1042B00019488160FF21C160002101614161816174
:1042C000FDF70AFE08B1FCF73FFB00208DF808005F
:1042D0008DF809008DF80A0005900690012202A9C8
:1042E0000D48FDF7F3FE08B1FCF72EFB01208DF819
:1042F00004008DF805008DF8060000208DF80700F9
:10430000012201A90448FDF75FFE08B1FCF71CFB80
:1043100007B000BD00280040F006002000B597B0AF
:10432000142112A8FBF796FF0020109011901C2179
:1043300009A8FBF78FFF202101A8FBF78BFF3D4861
:104340003D4908600020486020213B48816041F2DF
:104350008241C1604FF480710161012141610021FE
:104360008161FEF71BF808B1FCF7EEFA3248FEF760
:10437000CCFA08B1FCF7E8FA06201290102013904E
:1043800012A92D48FEF7DEFA08B1FCF7DDFA00208D
:104390001090119010A92848FDF7A6FF08B1FCF76E
:1043A000D3FA6020099000200A900B900C900D9099
:1043B0000E900F90002209A91F48FEF722FA08B1BB
:1043C000FCF7C2FA042209A91B48FEF71AFA08B141
:1043D000FCF7BAFA082209A91748FEF712FA08B141
:1043E000FCF7B2FA7020099041F281400A900C2249
:1043F00009A91148FEF705FA08B1FCF7A5FA4FF430
:1044000000600190401002908010039043200490BF
:104410004FF48050059000200690089001A90648AE
:10442000FDF728FF08B1FCF78FFA0348FEF79AF969
:1044300017B000BD000001401007002000B58BB090
:10444000242102A8FBF706FF0020009001901948E4
:10445000194908600020486000211748816040F633
:104460009F71C160002101618161032002900020E1
:10447000039001200490002005900E20069000205B
:10448000079001200890002009900E200A9002A9B0
:104490000948FEF701F808B1FCF756FA0020009031
:1044A000019069460448FDF71FFF08B1FCF74CFA7C
:1044B0000BB000BD00040040500700201CB50020D8
:1044C000009001900E480F49086054204860002178
:1044D0000C48816040F2E731C16000218161FDF745
:1044E0005DFF08B1FCF730FA0020009001906946AA
:1044F0000448FDF7F9FE08B1FCF726FA1CBD0000E0
:10450000001400409007002010B50B480B490860CC
:104510004FF4E1304860002108488160C1600161CA
:104520000C21416100218161C161FEF742FA08B1AD
:10453000FCF70AFA10BD000000480040D007002038
:1045400070B504462078B0B994F8260001F012FA4C
:1045500006464FF6FF70864208D0208B451E208A03
:1045600045433544208BB5FBF0F52582204600F00D
:1045700030F8E08201E00020E082E08A70BD002196
:104580000182704710B50146087868B90A8A086A3E
:10459000121AB1F91E0042431046D31702EB13431F
:1045A0008C8C04EB234200E08A8A10B210BD10B557
:1045B0000446207840B9201D01F07EFA84F82600D8
:1045C0002046FFF7DCFF03E00020E082608A2082C3
:1045D00010BD01460A8A4B8B9A4201DD082006E095
:1045E0000A8A8B8B9A4201DA002000E0C88A704761
:1045F00070B500240CE0002506E00020074901EB1F
:10460000C5010855681CC5B2802DF6DB601CC4B21C
:10461000082CF0DB00F0BEF870BD0000A4090020FB
:10462000F0B5144600267F2801DC3F2900DDF0BDEF
:104630000B46CF1701EB5777FF10C7F10707FAB208
:10464000CF1701EB5777FF10A1EBC707FDB2C5F1FC
:1046500007070123BB40DEB24CB10A4B03EBC0039A
:104660009B5C3343074F07EBC007BB5408E0054B87
:1046700003EBC0039B5CB343024F07EBC007BB5483
:1046800000BFD4E7A409002010B5012220213F4833
:10469000FCF7E2FE012204213D48FCF7DDFE00228A
:1046A00008213B48FCF7D8FE0A20FCF7C1FD012297
:1046B00008213748FCF7D0FE6420FCF7B9FD002143
:1046C000AE2000F043F90021D52000F03FF9002191
:1046D000502000F03BF90021A82000F037F900211C
:1046E0003F2000F033F90021D32000F02FF9002102
:1046F000084600F02BF90021402000F027F90021A6
:104700008D2000F023F90021142000F01FF9002172
:10471000202000F01BF90021022000F017F90021F1
:10472000A12000F013F90021C02000F00FF90021B2
:10473000DA2000F00BF90021122000F007F9002127
:10474000812000F003F90021EF2000F0FFF80021A4
:10475000D92000F0FBF80021F12000F0F7F800214B
:10476000DB2000F0F3F80021302000F0EFF800210A
:10477000A42000F0EBF80021A62000F0E7F80021CB
:10478000AF2000F0E3F8FFF733FF10BD0008024050
:104790000000024070B500241CE004F1B001C8B272
:1047A000002100F0D3F80021084600F0CFF80021E6
:1047B000102000F0CBF8002508E0084901EBC50106
:1047C000085D012100F0C2F8681CC5B2802DF4DB41
:1047D000601CC4B2082CE0DB70BD0000A4090020FE
:1047E0002DE9F84F80460F4616461C46BA4620462D
:1047F000E31704EB5373DB1021464FEAE47C04EB30
:104800005C7C4FEAEC0CA4EBCC0CBCF1000F02D0AA
:104810004FF0010C01E04FF0000C6344224604EB22
:10482000D27C4FEA6C0C03FB0CF303F0FF0BA6F1F8
:104830002000C6B200254EE00C2C07D106EB460046
:10484000274901EB8000405D009013E0102C05D15A
:10485000244800EB0610405D00900BE0182C07D1B7
:1048600006EBC600204901EB8000405D009001E0AE
:10487000BDE8F88F4FF0000927E0009800F08000B5
:1048800028B1394640460A9AFFF7CAFE09E00A985D
:1048900008B9012000E00020024639464046FFF7F3
:1048A000BFFE00984006000E0090781CC7B2A7EB30
:1048B0000A00A04205D1574608F1010000F0FF08A8
:1048C00006E009F1010000F0FF09B9F1080FD4DB9F
:1048D00000BF681CC5B25D45AEDB00BFC8E7000085
:1048E000EC82000860870008508D0008F8B5064685
:1048F0000F4615461C4621E004EBD4714910C1F166
:104900008001B14202DA00263819C7B2C4F1400072
:10491000B84204DA002006460746FFF769FE012088
:1049200000902A78234639463046FFF759FF204643
:1049300004EBD07106EB6101CEB26D1C28787E28A5
:1049400002DC28782028D7DAF8BD000070B50446CC
:104950000E462EB1012204211C48FCF77DFD04E027
:10496000002204211948FCF777FD00222021184875
:10497000FCF772FD00251BE0002208211548FCF71A
:104980006BFD04F0800028B1012220211148FCF7C2
:1049900063FD04E0002220210E48FCF75DFD0122AA
:1049A00008210C48FCF758FD6006040E681CC5B2CF
:1049B000082DE1DB012220210548FCF74DFD0122F5
:1049C00004210248FCF748FD70BD000000000240D1
:1049D00000080240000402400146B1F9220070477D
:1049E0000146B1F9060070470146488B7047014601
:1049F000B1F9040070470146088B70470188818037
:104A00004188C180018C41840021816081627047AE
:104A10008160704741847047C180704781807047D2
:104A20002DE9F04302460D464FF00008B2F914603C
:104A3000B2F91670B2F9040000FB05FCD08810B979
:104A40000020906022E0B2F9060000FB05F49068B7
:104A50000319002B07DA906800280ADD002C08DD16
:104A60006FF0004305E09068002802DA002C00DABD
:104A7000144BD068984202DAD068906006E0106962
:104A8000984202DD1069906000E0936092F81E90F9
:104A9000906840FA09F092F81C904CFA09F900EB82
:104AA0000901B14203DDA6EB0108314604E0B94239
:104AB00002DAA7EB0108394690684044906008B2DA
:104AC000BDE8F083010000802DE9FC410446D4F8E4
:104AD0000C01C0680190D4F80C01D0F816000090C9
:104AE000BDF80400BDF8001010FB01F0BDF8061081
:104AF000BDF8022011FB0206F11706EB11410E145E
:104B0000D4F8100102F06EFFD4F8081100FB01F791
:104B10004FF4167097FBF0F706FB07F505EB450021
:104B200045000A2095FBF0F5E91705EB11410D143E
:104B300029462046FFF76AF9BDE8FC8110B5044616
:104B40002046E169884710BD70B504460D46002631
:104B50006DB9204600F059F94434E0892080E0899D
:104B6000443CB0B9204621698847012611E0012D57
:104B70000FD1B4F8440058B134F8440F401E2080DF
:104B800034F8440928B9204621698847012600E005
:104B90000126304670BD70B504460D4629462046B4
:104BA0006268904770BD2DE9F34F81B00446BDF9AE
:104BB0000800218E48430090BDF90A00B4F8501057
:104BC000484340424FEA400B5E4600990BEB010020
:104BD00000EBD0714FEA61080099ABEB010000EBEC
:104BE000D0714F10B8F1000F6ADA002F22DA0420DA
:104BF00004F83A0FE18ACA1701EB92729210A8EBFF
:104C00000700C31700EB933302EBA3453846F917AF
:104C100007EBD13105EB614940464FEAE87108EBFB
:104C2000D131A5EB614AA4F802A0A580A4F80690B2
:104C30003A3CAFE0002E20DC032004F83A0FE18A72
:104C4000CA1701EB92729210F01BC31700EB93335B
:104C500002EBA3453846F91707EBD13105EB614963
:104C60003046F11706EBD131A9EB614AA4F802A056
:104C7000A4F80490E5803A3C8CE0022004F83A0F56
:104C8000E18ACA1701EB92729210A8EB0600C317D3
:104C900000EB933302EBA34540464FEAE87108EB83
:104CA000D131A5EB614A3046F11706EBD1310AEB61
:104CB0006149A4F80290A4F804A0E5803A3C69E0B8
:104CC000002F22DB012004F83A0FE18ACA1701EB1A
:104CD00092729210A8EB0700C31700EB933302EB1C
:104CE000A3453846F91707EBD13105EB614940463A
:104CF0004FEAE87108EBD131A5EB614AA4F80290C4
:104D0000A580A4F806A03A3C44E0002E22DC052051
:104D100004F83A0FE18ACA1701EB92729210A8EBDD
:104D20000600C31700EB933302EBA34540464FEA5E
:104D3000E87108EBD131A5EB614A3046F11706EB7B
:104D4000D1310AEB61496580A4F804A0A4F806906B
:104D50003A3C1FE0002004F83A0FE18ACA1701EB41
:104D600092729210F01BC31700EB933302EBA34532
:104D70003846F91707EBD13105EB61493046F11799
:104D800006EBD131A9EB614A6580A4F80490A4F840
:104D900006A03A3C6586A4F83490A4F836A0B4F88E
:104DA0004E0001282CD1B4F94800002805DD608EA2
:104DB000B4F854100844608604E0608EB4F85410CF
:104DC000401A6086B4F94A00002805DDA08EB4F8C8
:104DD00054100844A08604E0A08EB4F85410401A81
:104DE000A086B4F94C00002805DDE08EB4F854101C
:104DF0000844E08604E0E08EB4F85410401AE086DF
:104E00002046A1698847BDE8FE8F10B504462046BC
:104E1000A168884710BD10B50446A06F90F88F00B8
:104E200002280ED1A26F9169D068FDF7D1FEA26F62
:104E3000D1691069FDF7CCFEA26F116A5069FDF7C8
:104E4000C7FE012084F8740004F1460010BD000084
:104E500070B504462546A86F86680020E865286678
:104E6000686685F8730040F255513046FDF7B5FE8F
:104E7000384868603848A861032085F8720085F8D2
:104E80003A00284600F058FCA86F90F88E2005F1F3
:104E9000730305F13801304603F044F8284600F06A
:104EA00016FC002085F873002C486860002085F807
:104EB000720085F83A00284600F03EFCA86F90F892
:104EC0008E2005F1730305F13801304603F02AF80E
:104ED000284600F0FCFBE86DC008E865286EC008B5
:104EE0002866686EC00868661D4868601D48A8612D
:104EF00001213046FDF7DAFE10213046FDF7D6FEDF
:104F00004FF480713046FDF7D1FEB5F87010304691
:104F1000FDF72CFFB5F870103046FDF729FFB5F806
:104F200070103046FDF726FF01213046FDF7EEFEFA
:104F300010213046FDF7EAFE4FF480713046FDF750
:104F4000E5FE032085F83A0040F255513046FDF762
:104F500048FE70BDD950000829560008315100089C
:104F6000694F00084D5600082DE9F05F07460C46D2
:104F70003E46B06FD0F808B04FF480515846FDF768
:104F80002CFE96F83A80B06F243050F82800006864
:104F90004FF6FF7101EA4009B06F3C3050F828002D
:104FA000006801EA400AB8F1060F7AD2DFE808F09B
:104FB0002C575803042B00BFF06DA0EB090515F525
:104FC000004F03DC48F20100208008E0B5F5004FF7
:104FD00003DB47F6FF70208001E028B22080306EAE
:104FE000A0EB0A0515F5004F03DC48F201006080D4
:104FF00008E0B5F5004F03DB47F6FF70608001E085
:1050000028B2608059E000BF306EA0EB090515F5AD
:10501000004F03DC48F20100608008E0B5F5004F66
:1050200003DB47F6FF70608001E028B26080706E9D
:10503000A0EB0A05B4F9020069420D1AB5F5004F5C
:1050400003DB47F6FF70208008E015F5004F03DC16
:1050500048F20100208001E028B220802DE000BF4E
:10506000F06DA0EB090515F5004F03DC48F20100D7
:10507000208008E0B5F5004F03DB47F6FF70208085
:1050800001E028B22080706EA0EB0A05B4F90000A0
:1050900069420D1AB5F5004F04DB47F6FF706080DA
:1050A00009E009E015F5004F03DC48F201006080DB
:1050B00001E028B2608000E000BF00BF208826F831
:1050C000480F60887080208840426188401A00B292
:1050D000B080483EBDE8F09F2DE9F04105460E4600
:1050E0002C46A06F87684FF480513846FDF775FD58
:1050F00094F87300102816D25C34E0692430A17D46
:1051000050F821000068216808442060E0693C30C4
:10511000A17D50F821000068616808446060E07D6E
:10512000401CE0755C3C002030807080BDE8F08160
:105130002DE9F04105460E462C46A06F87684FF4D6
:1051400080513846FDF749FD94F8730010280DD2C0
:10515000643460693C30A17B50F82100006821680C
:1051600008442060E07B401CE073643C00203080F9
:105170007080BDE8F08100002DE9F0410446A06F89
:105180008568A06F0668A06F476800BF286820F098
:105190000100286000BFA06F90F8900058B100BFD8
:1051A0006FF08000286100BF00BFE86840F0800019
:1051B000E86000BF00BF2846FDF737FDA06F90F8FC
:1051C0008C0002281BD1A06F90F88D0001280FD110
:1051D000A06F90F88E0003280AD101212846FDF720
:1051E00005FE2846FDF721FD03212846FDF7FEFDBB
:1051F000B4F87000411E2846FDF7F6FD08E094F86B
:10520000460028B9B4F87000411E2846FDF7ECFDB1
:1052100040F255512846FDF7E4FC1B48854205D174
:105220000120FDF7C1FC2801A06605E00220FDF782
:10523000BBFC4FF4F010A0663046FDF771FC384619
:10524000FDF76EFC00BF6FF00400306000BF00BFD0
:10525000706840F08000706000BF0020F16A21F4A7
:1052600070010143F16200BF00213046FDF75DFC93
:1052700000213846FDF759FC4FF48010E06600200D
:10528000A4F84E00BDE8F0810000014001460A4646
:10529000002092F87430012B03D14020002382F8C3
:1052A0007430704770B505462C46A06F866894F838
:1052B0004700012872D1602201213046FDF75EFDD2
:1052C00001213046FDF78DFCA06F90F88F0001287A
:1052D00004D104213046FDF784FC08E0A06F90F86B
:1052E0008F00022803D104213046FDF776FCB4F884
:1052F000700041083046FDF739FD6022102130462C
:10530000FDF73CFD10213046FDF76BFCA06F90F8D7
:105310008F00012804D140213046FDF762FC08E0EF
:10532000A06F90F88F00022803D140213046FDF78E
:1053300054FCB4F8700041083046FDF719FD6022B6
:105340004FF480713046FDF719FD4FF480713046FF
:10535000FDF747FCA06F90F88F00012804D181026F
:105360003046FDF73EFC08E0A06F90F88F00022861
:1053700003D141023046FDF730FCB4F8700041081B
:105380003046FDF7F7FC0648606006486061064855
:10539000E0600648A060002084F8470070BD00006F
:1053A000694F0008B158000839570008CF56000867
:1053B00070B505462C46A06F866894F84700002813
:1053C00045D1602201213046FDF7D8FC012130464D
:1053D000FDF707FC04213046FDF7FFFB00213046B6
:1053E000FDF7C4FCA06F90F88F0001280DD11022AA
:1053F00011463046FDF7C2FC10213046FDF7EDFBAB
:1054000040213046FDF7EDFB11E0A06F90F88F00D2
:1054100002280CD1202210213046FDF7AFFC1021CC
:105420003046FDF7DEFB40213046FDF7D6FB70220B
:105430004FF480713046FDF7A1FC4FF48071304687
:10544000FDF7CBFB4FF480613046FDF7C6FB064805
:105450006060064860610648E0600648A060012080
:1054600084F8470070BD0000C9540008CF550008FB
:1054700019550008CF5600082DE9F04704460F469D
:105480002546A86FD0F80890B5F8700078434FEA29
:105490001048A5F83280698E4846FDF767FC032066
:1054A00084F83A004FF480514846FDF79EFB08B15E
:1054B000012600E00026288F012802D101260020C5
:1054C00028873046BDE8F0872DE9F04104460F46B5
:1054D0002546A86FD0F808804FF480514046FDF76C
:1054E0007CFBA86F3C3095F83A1050F8210000681A
:1054F000296EA1EB40060748864204DD400C864237
:1055000002DB064600E0034E30B2388030B27880CD
:10551000BDE8F0810180FFFF70B506463446A06FFC
:1055200085682846FDF76EFB00BF2846FDF7B8FBEF
:105530000028FAD02846FDF765FB01212846FDF733
:1055400015FCB4F87000411F2846FDF715FC00BF9C
:105550002846FDF7A5FB0028FAD02846FDF752FBA8
:10556000686C40F4806068642846FDF74FFBA06FCC
:1055700090F88F00022823D1286A40F25551084044
:1055800078B1A26F9169D068FDF725FBA26FD16950
:105590001069FDF720FBA26F116A5069FDF718FB37
:1055A0000EE0A26F9169D068FDF712FBA26FD1697E
:1055B0001069FDF70DFBA26F116A5069FDF708FB3A
:1055C0002846FDF71FFB2846FDF725FB70BD70B58B
:1055D00005462C46A06F866800213046FDF7C6FBC5
:1055E0003046FDF70FFB00BF3046FDF759FB0028A2
:1055F000FAD03046FDF706FB3046FDF707FBA06FFB
:1056000090F88F0002280ED1A26F9169D068FDF743
:10561000E2FAA26FD1691069FDF7DAFAA26F116A96
:105620005069FDF7D5FA70BD70B5044625464FF4B4
:105630008010E86695F8720085F83A00B5F87000B9
:10564000401E81B2284600F06BF970BD2DE9F0478D
:1056500005462C46AF8FB5F83E90B4F87000C01BDD
:1056600080B2A16FB1F88610884207DD032084F86C
:105670003A00B4F87000401E86B222E0A7EB0900A1
:105680001FFA80F8B4F87000C01B80B2B8EB400F6E
:1056900005D9A06FB0F88800381A86B211E0A06F63
:1056A000B0F88600384486B2B4F87000B04208DC26
:1056B0004FF40010E066B4F87000C6EB4000401EE6
:1056C00086B23146204600F02BF9BDE8F08770B570
:1056D00005462C46A06F866800BFF06820F00100E8
:1056E000F06000BF002084F8420000BF706C20F41E
:1056F0000040706400BFA06F90F88F0002280ED1A8
:10570000A26F9169D068FDF763FAA26FD169106941
:10571000FDF75EFAA26F116A5069FDF759FA30463B
:10572000FDF770FA00BF3046FDF7BAFA0028FAD04C
:105730003046FDF767FA70BD70B505462C46423419
:10574000D4F83600866800202070E08D4110304685
:10575000FDF70CFBE08D41103046FDF709FBE08DB5
:1057600041103046FDF706FBE08D423C411F3046BC
:10577000FDF702FB3046FDF745FA00BF3046FDF766
:105780008FFA0028FAD03046FDF73CFA706C40F4EE
:10579000806070643046FDF739FAA06F90F88F0092
:1057A000022824D140F255513046FDF71EFA78B157
:1057B000A26F9169D068FDF70EFAA26FD1691069E6
:1057C000FDF709FAA26F116A5069FDF704FA0EE0BD
:1057D000A26F9169D068FDF7FBF9A26FD1691069DA
:1057E000FDF7F6F9A26F116A5069FDF7F1F930463D
:1057F000FDF708FA3046FDF70EFA70BD2DE9F041CD
:105800000446A06F8768A06F0568A06FD0F8048079
:10581000286800F00C06082E06D100BF286800F0AA
:105820000C060C2EFAD112E08EB900BF786AA16F77
:10583000B1F884108842F9D3286800F00C06082ECD
:1058400005D100BF286800F00C060C2EFAD12846BE
:10585000FDF77DF94046FDF77AF9A06F543094F8D2
:105860003A1050F82100A863A06F6C3094F83A10F9
:1058700050F82100C8F838002846A16EFDF75BF902
:105880004046A16EFDF757F94FF480513846FDF7B9
:10589000A8F92846E16EFDF756F94046E16EFDF79E
:1058A00052F94FF48010E06604F14600BDE8F08143
:1058B00070B505462C46A06F8668012084F842002A
:1058C0003046FDF79FF900213046FDF74FFA0021E1
:1058D0003046FDF74DFA00213046FDF74BFA00BF88
:1058E0003046FDF7DDF90028FAD03046FDF78AF999
:1058F0003046FDF78BF9A06F90F88F0002280ED18B
:10590000A26F9169D068FDF766F9A26FD16910693D
:10591000FDF761F9A26F116A5069FDF75CF970BD7E
:105920002DE9F04104460F462546A86FD0F80880BF
:10593000698E4046FDF71AFAA98E4046FDF718FA1F
:10594000E98E4046FDF716FA39464046FDF714FA4F
:105950004FF480514046FDF748F908B1012600E0B8
:105960000026288F012802D10126002028873046F2
:10597000BDE8F0812DE9F0410446364A52F8242072
:105980004FF400701168334A52F824201279092A22
:105990000ED8304A52F8242012792E4E56F8246040
:1059A000367906EB4606070447EA065632430EE010
:1059B000284A52F824201279264E56F82460367967
:1059C0000A3E06EB4606002747EA065632431346D0
:1059D00000F440764FF4407797FAA7F7B7FA87F7C5
:1059E000FE4001F12C0707EB8602166800F01F0C41
:1059F0001F2707FA0CF7BE4303F01F0700F01F0C28
:105A000007FA0CF73E43166000BF124951F8241004
:105A10000868C16C01210F4850F824000068083064
:105A20004FF0844202EB4010816700BF094951F8F2
:105A3000241008680168C1F340010029F6D0054927
:105A400051F824100868FDF787F805462846BDE898
:105A5000F0810000A808002010B513480078012844
:105A600021D112480078FFF785FF114908800220F4
:105A70000D4908700F480D49097850F8310090B170
:105A80000020094908700B480849097800EBC1005B
:105A9000426808480549097850F8313004480188BF
:105AA00002480078984710BD2406002020060020F8
:105AB00022060020B80800202DE9F0410146FF2011
:105AC00000221CE04E4B53F8223013B9042800DDAD
:105AD00010464B4B53F822307BB1494B53F82230E0
:105AE0001B790C79A34208D1454B53F822301B682F
:105AF0000C68A34201D110460422531CDAB2042AD6
:105B0000E0DB042879DA3E4B43F8201000233D4CBB
:105B100044F830300B689C6804F00104E4B90B6869
:105B20005C6824F020045C6000BF0B686FF0020426
:105B30001C6000BF0B685C6824F080045C6000BFE0
:105B40000B686FF004041C6000BF0B689C6844F095
:105B500001049C6000BF00BF00240B68DD6A25F4CF
:105B600070052543DD6200BF0E790C68092E08D848
:105B70000E7906EB46074FF0007C4CEA07573E4390
:105B800009E00E79A6F10A0707EB47074FF0000C72
:105B90004CEA07573E4333468D6803F000774FF0D9
:105BA000007C9CFAACFCBCFA8CFC27FA0CF704F1E4
:105BB0000C0C0CEB8706376803F0F87C4FF0F87894
:105BC00098FAA8F8B8FA88F82CFA08FC4FF00708F9
:105BD00008FA0CF827EA080703F0F87C4FF0F87889
:105BE00098FAA8F8B8FA88F82CFA08FC05FA0CFC20
:105BF00047EA0C07376000BF00BFBDE8F081000036
:105C0000A8080020B8080020002181604160C16020
:105C100001610121416170470146002203E0521CED
:105C2000A1F10A00C1B20A29F9D2100741EA1060B5
:105C3000704770B5044600252068C06800F0400039
:105C4000A0B9681E2168C860FBF70CFC054607E098
:105C5000FBF708FC401BB0F57A7F01D9032070BD2B
:105C60002068C06800F040000028F1D00020F6E76E
:105C7000014691F848007047024601EB410302F1EA
:105C80000C0030F823007047024601EB410302F19B
:105C90000C0000EB8300B0F902007047024601EBF4
:105CA000410302F10C0000EB8300B0F904007047DF
:105CB00010B501EB410400F10C0323F8242010BDC2
:105CC00010B501EB410400F10C0303EB84035A808F
:105CD00010BD10B501EB410400F10C0303EB84038C
:105CE0009A8010BD0146B1F90C0070470146B1F928
:105CF000040070470146B1F9100070470146B1F940
:105D00000C20C2EBC232888A00B292FBF0F210B2D1
:105D100070472DE9F04102460B460120D5784FF03F
:105D2000000C1178B3F90080B8F1000F07DAB3F86E
:105D30000080C8F100080FFA88F7BCB203E0B3F89E
:105D400000801FFA88F4B2F81480A04501DA4FF001
:105D5000010CB2F81680A04501DD4FF0010CB2F93C
:105D60001280B8F1000F07DAB2F81280C8F100080B
:105D70000FFA88F7BEB203E0B2F812801FFA88F675
:105D8000B2F81880B04501DA4FF0010CBCF1010FF8
:105D900006D1A94207DA01F1010808F0FF0102E08B
:105DA000A94200DA0021A94200D100201170BDE80B
:105DB000F0812DE9F04704460027207808B9A5684E
:105DC00000E06568E068012805D9A0690544E0683D
:105DD000401EE06006E0E068012803D16088050409
:105DE0000020E0602078012815D12846E91705EB4E
:105DF00011410E146069FFF775FF8046A6EB08009D
:105E00000FFA80F949462069FEF70AFE07466560E9
:105E10003804A06005E0A5602846E91705EB1141AC
:105E20000F143846BDE8F08710B5044620780128E5
:105E300003D100212069FEF7EBFD10BD2DE9F047ED
:105E400004460D4617464FF00108207878B92046E1
:105E500000F077F80646E08CA84201DA4FF000081F
:105E6000B4F92800A8421DDD4FF000081AE0606870
:105E7000C11700EB11410E14E08BA84202DA4FF07B
:105E800000080FE0B4F92400A84202DD4FF000083A
:105E900008E0208CA84205DDB4F92200A84201DA0E
:105EA0004FF00008B8F1010F21D15FB92078012827
:105EB00002D12804606001E02804A0600020E060B6
:105EC000A06114E06580A08B00FB07F94FF47A70A5
:105ED000B9FBF0F9C4F80C90E068401CE060A81B26
:105EE0004FEA004AE0689AFBF0FAC4F818A040466E
:105EF000BDE8F08710B504466069FFF7F3FE0004C3
:105F0000606010BD08B50146C88DADF80000088E70
:105F1000ADF80200009808BD0146C88B70470146E5
:105F20004A68D01702EB1040001470470146B1F9DF
:105F30002C0070470146B1F92400704701464869BA
:105F4000704701468A68D01702EB10400014704772
:105F50000161426190F82A300370838D1B04436015
:105F6000C38D1B04836000234380C360836170473B
:105F700001700022C2607047416170470021C1601A
:105F800081617047014600200A780B2A04D109225A
:105F90000A7000228A800120704710B503461878E5
:105FA0005C880C4394435C809C880C439C800A284A
:105FB00005D15C8844B90B241C700B2004E05C887C
:105FC00014B10A241C700A2010BD014688884A8832
:105FD00040EA02407047014608787047002101708E
:105FE0004180818070472DE9F04105460C464FF015
:105FF00000082E783746152E73D2DFE806F0101A07
:106000003C4273878F959BA1A8A80B242C34505831
:106010006A7D620014B927464FF0010898E0032C0E
:1060200003D0012C01D00C2C02D127464FF00108DF
:106030008EE0072C03D00D2C01D00E2C02D1274668
:106040004FF0010884E00E2C01D0072C02D1274626
:106050004FF001087CE00F2C01D0072C02D127461D
:106060004FF0010874E0022C01D0072C02D1274622
:106070004FF001086CE0072C02D127464FF00108D1
:1060800066E0072C07D0102C05D0042C03D0112C6F
:1060900001D0012C02D127464FF0010858E0112C05
:1060A00001D0072C02D127464FF0010850E0122CF6
:1060B00003D0072C01D0142C02D127464FF0010841
:1060C00046E0122C01D0072C02D127464FF00108E0
:1060D0003EE0042C01D0072C02D127464FF00108E6
:1060E00036E034E0132C03D0072C01D0052C02D16C
:1060F00027464FF001082BE0042C03D0072C01D0D9
:10610000052C02D127464FF0010821E0062C01D0D2
:10611000072C02D127464FF0010819E0072C02D1C5
:1061200027464FF0010813E0082C02D127464FF014
:1061300001080DE0092C02D127464FF0010807E0C5
:106140000CB10C2C02D127464FF0010800E000BF33
:1061500000BFB8F1000F01D02F700AE0032C08D067
:10616000012C06D0072C04D0002280212846FFF7FE
:1061700014FF4046BDE8F08110B5094800780228B8
:1061800006D1FBF775F9FCF76FF800200449087099
:1061900003480078401C02490870FDF7EDFC10BD73
:1061A0002506002000B597B030210BA8FAF752F869
:1061B000142106A8FAF74EF80020029003900490EC
:1061C000059000BF01902B48006840F0805029499D
:1061D00008600846006800F08050019000BF00BFD2
:1061E00000BF002001902448006840F4804022490C
:1061F00008600846006800F48040019000BF00BFBE
:1062000009200B904FF480300C9001201090022058
:1062100011904105129104211391A821149102219A
:106220001591042116910BA8FBF712FC08B1FAF79F
:106230008BFB0F20069002200790002008904FF45F
:10624000A05009904FF480500A90052106A8FBF752
:10625000B9FA08B1FAF778FB022002900002059023
:1062600002A8FBF7DFF908B1FAF76EFBFBF76CFB4E
:1062700017B000BD4038024000700040054800687B
:1062800040F47000034908604FF000600149803914
:106290000860704788ED00E010B50A49896F88688A
:1062A0000169C1F3C01149B10649896F88686FF06F
:1062B0008001016100BF0348FEF7ADFDFDF76AFCF8
:1062C00010BD0000E401002010B50449896F886802
:1062D000FCF794FC0148FFF791FA10BDE40100209F
:1062E00010B50A49086AC16801F0010161B10749A6
:1062F000086A016901F0010131B10449086AFCF73B
:106300007DFC0248FAF7ABFA10BD000098020020AD
:1063100010B50248FCF75BF910BD000090070020A3
:1063200010B50268294B98420ED0B0F1804F0BD0C7
:10633000274B984208D0274B984205D0264B9842CD
:1063400002D0264B984203D122F070024B681A43C8
:106350001E4B984220D0B0F1804F1DD01C4B98426C
:106360001AD01C4B984217D01B4B984214D01B4B91
:10637000984211D01A4B98420ED01A4B98420BD02B
:10638000194B984208D0194B984205D0184B9842A7
:1063900002D0184B984203D122F44072CB681A43C2
:1063A00022F080034C6943EA040202608B68C362F6
:1063B0000B688362054B984202D0084B984201D18A
:1063C0000B6903630123436110BD0000000001401D
:1063D0000004004000080040000C004000040140A0
:1063E00000400140004401400048014000180040C6
:1063F000001C00400020004030B50C46816821F4AC
:106400007F4142EA032525432943816030BD0000D6
:1064100030B5056A25F001050562026A43688469A2
:1064200024F0700424F003040D682C4322F00202CF
:106430008D682A43104DA84200D103E00F4DA842B9
:1064400006D100BF22F00802CD682A4322F00402E0
:10645000094DA84202D0094DA84207D123F4807308
:1064600023F400734D692B438D692B434360846192
:106470004D684563026230BD0000014000040140E8
:1064800030B5056A25F010050562026A4368846923
:1064900024F4E04424F440740D6844EA052422F016
:1064A00020028D6842EA0512124DA84200D103E095
:1064B000114DA84207D100BF22F08002CD6842EA08
:1064C000051222F040020B4DA84202D00A4DA8420C
:1064D00009D123F4806323F400634D6943EA850303
:1064E0008D6943EA8503436084614D688563026278
:1064F00030BD0000000001400004014030B5056AD5
:1065000025F480750562026A4368C46924F070044A
:1065100024F003040D682C4322F400728D6842EAD3
:106520000522124DA84200D103E0114DA84207D127
:1065300000BF22F40062CD6842EA052222F48062A4
:106540000A4DA84202D00A4DA84209D123F4805333
:1065500023F400534D6943EA05138D6943EA05139B
:106560004360C4614D68C563026230BD00000140F4
:106570000004014030B5056A25F480550562036AC0
:106580004468C26922F4E04222F440720D6842EA93
:10659000052223F400538D6843EA0533084DA842D1
:1065A00002D0084DA84204D124F480444D6944EA45
:1065B00085144460C2614D680564036230BD00000B
:1065C00000000140000401402DE9F04105460C4661
:1065D0002868866826F070066068064326F007067D
:1065E0002068064328688660606800F00F01002973
:1065F0003BD10011082838D2DFE800F033343536BB
:106600000B272D04D4E90313A2682868FFF7F4FED2
:106610002CE02068052802D10120BDE8F08128681F
:10662000D0F820802868006A20F0010029680862FC
:106630002868876927F0F007206947EA001728686B
:1066400087612868C0F8208010E02269A168286866
:1066500000F00FF80AE02269A168286800F01CF831
:1066600004E000BF00BF00BF00E000BF00BF00208B
:10667000D3E730B50B461446026A056A25F00105DA
:106680000562816921F0F00141EA041122F00A0259
:106690001A438161026230BD30B50B461446056A6B
:1066A00025F0100505628169026A21F4704141EA12
:1066B000043122F0A00242EA03128161026230BD7D
:1066C00000200249098801B9012070471A060020FC
:1066D00010B505490868FEF7FAFF0022802103483B
:1066E000FFF75BFC10BD000000060020DC05002069
:1066F00070B500240748F9F7D6FFFAF7FFF9054609
:10670000012D04D1002201210348FFF746FC204659
:1067100070BD000098020020DC0500201CB50020A0
:10672000019001A98748F9F7D9FF87490868FEF762
:10673000CBF98648FFF74FFC0446132C72D2DFE8F2
:1067400004F00A589B1796BFD2DAF0F8FDFDFD64FD
:10675000727D303D48007E48F9F76DFF38B1002169
:106760007B48F9F776FF03217848FFF73CFCE6E029
:106770007748F9F76BFF40B901217548F9F769FFD0
:1067800001217248FFF72FFCD9E072490868FFF732
:106790008FF8142000F04EF910216C48FFF723FC0D
:1067A000CDE0FFF78DFF40B16A4908680021FEF790
:1067B000CBF911216548FFF716FCC0E06549086870
:1067C0000121FEF7C1F918B112216048FFF70BFC57
:1067D000B5E05C48FAF732F804215C48FFF703FCA7
:1067E00030B10020FAF71AF95A490868FEF7A4FFF9
:1067F000A5E058490868FFF75BF8142000F01AF983
:106800000D215248FFF7EFFB99E0FFF759FF40B128
:10681000504908680021FEF797F90E214B48FFF711
:10682000E2FB8CE08AE04B4908680121FEF78CF915
:1068300018B10F214548FFF7D6FB80E001204649FB
:1068400081F82400454908684549FFF795FB404811
:10685000F9F701FF02213D48FFF7C5FB30B10020E9
:10686000FAF7DCF83B490868FEF766FF67E00521A8
:106870003648FFF7B8FB62E03548F9F7C2FE60B969
:106880000020ADF8000035490868FFF792FAADF82E
:10689000020031480099016111E02E490868FEF7B5
:1068A00016FF2E4908680121FFF762FB2B49086893
:1068B0002449FFF761FB07212448FFF794FB3EE0E2
:1068C0000020FAF77FF90020FAF77AF806211F482E
:1068D000FFF789FB21490868FFF70CFB214908688D
:1068E000FCF7B8FA2BE01F490868FCF7B3FA002060
:1068F000FAF766F823E017490868FEF7E8FE00207B
:10690000FAF78CF810490868FDF7AAFA4FF44870B6
:1069100000F096F808210D48FFF765FB0FE008E04E
:10692000FFE700F093F818B109210848FFF75BFB77
:1069300005E000210548FFF756FB00E000BF00BF5F
:106940001CBD0000980200200C060020DC05002081
:10695000140300200006002010080020E405002099
:1069600060020020D805002010B5054800780128F5
:1069700004D1002000F006F8FFF76EF810BD00000B
:106980001E06002038B50446002524480068009003
:10699000234951F82400FDF7D3FD3DF814100840B9
:1069A0000543204951F82400FEF7C8F80543E943A0
:1069B0008AB204EB44011C4B03EB41002946FFF76C
:1069C000ECFA04EB4401184A02EB4100FFF703FB29
:1069D0000A2802D00B281ED117E0144850F82400D2
:1069E00028B1124951F824000021F9F732FE0D496F
:1069F00051F82400FEF709FA2046FAF70FF80C497F
:106A000051F82400FDF72CFA06E0064951F824005D
:106A1000FEF7FBF900E000BF00BF38BDFC7F0008B7
:106A2000FC05002000060020DC050020F405002005
:106A30000C06002001490880704700001A0600205B
:106A400001490880704700001C0600200020024910
:106A5000098801B9012070471C0600202DE9F84F74
:106A600004462068006920F44050E168084321682A
:106A700008612169A068084361690843E169084326
:106A800000902068C06849F20C618843009908436F
:106A90002168C8602068406920F44070A1690843FB
:106AA00021684861E069B0F5004F75D1E34920687D
:106AB000884203D0E249206888426FD1FAF760FF2C
:106AC000814602206168A0FB01510B461920A9FBF9
:106AD00000712A463846F9F773FB6421B0FBF1F0E8
:106AE0004FEA001A02206168A0FB01510B461920F1
:106AF000A9FB00712A463846F9F762FB07460220D7
:106B00006168A0FB01510B461920A9FB00B12A4680
:106B10005846F9F755FB6421B0FBF1F000EBC001DA
:106B200001EB0010A7EB8000322101EBC0006421D3
:106B3000B0FBF1F000F0F8000AEB400A02206168B7
:106B4000A0FB01510B461920A9FB00712A463846CB
:106B5000F9F736FB074602206168A0FB01510B469E
:106B60001920A9FB00B12A465846F9F729FB6421F0
:106B7000B0FBF1F000EBC00101EB0010A7EB8000CF
:106B8000322101EBC0006421B0FBF1F000F00700FE
:106B90005044216888604FE16EE0FFE7FAF7E0FEBD
:106BA000814602206168A0FB01510B461920A9FB18
:106BB00000712A463846F9F703FB6421B0FBF1F077
:106BC0004FEA001A02206168A0FB01510B46192010
:106BD000A9FB00712A463846F9F7F2FA0746022067
:106BE0006168A0FB01510B461920A9FB00B12A46A0
:106BF0005846F9F7E5FA6421B0FBF1F000EBC0016B
:106C000001EB0010A7EB8000322101EBC0006421F2
:106C1000B0FBF1F000F0F8000AEB400A02206168D6
:106C2000A0FB01510B461920A9FB00712A463846EA
:106C3000F9F7C6FA074602206168A0FB0150034637
:106C40001920A9FB00B12A465846F9F7B9FA642180
:106C5000B0FBF1F000EBC00101EB0010A7EB8000EE
:106C6000322101EBC0006421B0FBF1F000F007001D
:106C7000504421688860DFE070492068884203D072
:106C80006F49206888426BD1FAF77AFE814604206A
:106C90006168A0FB01510B461920A9FB00712A462F
:106CA0003846F9F78DFA824604206168A0FB01514D
:106CB0000B461920A9FB00712A463846F9F780FADD
:106CC0006421B0FBF1F000EBC00101EB0010AAEB76
:106CD0008000322101EB00106421B0FBF1F000F0E4
:106CE000F00A04206168A0FB015003461920A9FBAB
:106CF00000712A463846F9F763FA6421B0FBF1F0D7
:106D00000AEB001A04206168A0FB01510B46192010
:106D1000A9FB00712A463846F9F752FA07460420C3
:106D20006168A0FB015003461920A9FB00B12A4667
:106D30005846F9F745FA6421B0FBF1F000EBC001C9
:106D400001EB0010A7EB8000322101EB0010642161
:106D5000B0FBF1F000F00F005044216888606BE058
:106D6000FAF7FEFD814604206168A0FB015003464E
:106D70001920A9FB00712A463846F9F721FA824604
:106D800004206168A0FB015003461920A9FB007193
:106D90002A463846F9F714FA6421B0FBF1F000EB0B
:106DA000C00101EB0010AAEB8000322101EB0010C2
:106DB0006421B0FBF1F000F0F00A04206168A0FB50
:106DC000015003461920A9FB00712A463846F9F7FD
:106DD000F7F96421B0FBF1F00AEB001A04206168B6
:106DE000A0FB017003461920A9FB005001463A465A
:106DF0002846F9F7E5F9074604206168A0FB015031
:106E000003461920A9FB00B12A465846F9F7D8F9DC
:106E10006421B0FBF1F000EBC00101EB0010A7EB27
:106E20008000322101EB00106421B0FBF1F000F092
:106E30000F00504421688860BDE8F88F00100140C1
:106E400000140140002180F81C11704710B5044661
:106E50002046F9F797FD10BD38B5044625460820B1
:106E6000009001236A46FF21284600F090F838BDC3
:106E70002DE9F84305460F46DFF8D8802C4694F8F4
:106E80001C01002862D0FEB294F81D0110B1012847
:106E90001BD10BE084F89960DFF8BC80208A608207
:106EA00094F81D01401C84F81D014DE09A20065500
:106EB00094F81D01401C84F81D019A20005D802873
:106EC00002DB002084F81D013EE094F81D119A2099
:106ED000005D801C81420BDA94F81D11891E04F1BB
:106EE0009B00465494F81D01401C84F81D012AE0C3
:106EF00084F81B61DFF8648000206082D5F82001EF
:106F0000C16821F02001C16000BF002084F81C018D
:106F100004F19900F9F71BFD94F81B1188420AD17E
:106F20009A22135D94F8991004F19B02D4F808C0DA
:106F30002068E04707E00A20009001236A46FF210D
:106F4000204600F024F800BF00BF00BF4046BDE867
:106F5000F88300008AA100088CA100088EA1000817
:106F600010B5014691F81C217AB90A46002381F830
:106F70001D31012381F81C31D2F82031DC6844F046
:106F80002004DC6000BF022000E0012010BD2DE9DC
:106F9000F0470446894616461F4694F8970028BBDA
:106FA000254604F1160A84F81490677503E016F874
:106FB000010B0AF8010B381EA7F10101CFB2F6D17F
:106FC00004F11400F9F7C3FC84F89600002084F85B
:106FD0009800012084F89700D5F82001C16841F09D
:106FE0008001C16000BF4FF0020801E04FF00108CE
:106FF0004046BDE8F08770B505462C4694F89700EA
:10700000002839D094F8980010B1012804D101E08B
:10701000267D11E0667D0FE094F89810607D801C5D
:10702000814206DA94F89810891E04F11600465C35
:1070300001E094F8966000BF00BFF1B2D5F82001DE
:10704000416000BF94F89810607D801C814205DA91
:1070500094F89800401C84F898000CE0D5F82001C2
:10706000C16821F08001C16000BF002084F8970052
:10707000D4E90001884700BF70BD10B50446A0697F
:1070800010B12046A169884710BD10B5044660695B
:1070900010B120466169884710BD000010B5044654
:1070A0000548006800F0C9FAA04203D10248006810
:1070B000FFF7E3FF10BD0000280600202DE9F04196
:1070C00004460D46012694F82C10206A50F82170D1
:1070D0000F2D35D2DFE805F034080C11271A1B28D4
:1070E0002C30343434340D003846FBF777FF29E078
:1070F00000BF3846FBF77EFF24E03846FBF737FF3A
:10710000062802D13846FBF77CFF1BE01AE0384620
:10711000FBF72DFF18B93846FBF760FF02E0384651
:10712000FBF768FF0EE00DE03846FBF7E7FE09E0ED
:107130003846FBF788FE05E03846FBF77AFE01E0AB
:10714000002600BF00BF3046BDE8F0812DE9F041C8
:1071500004460D46164694F82C10206A50F821700B
:1071600005EB850040003C2190FBF1F00FFA80F820
:10717000324641463846FBF7B1FE0120BDE8F081BA
:107180002DE9F04104460D46164694F82C10206A6D
:1071900050F82170324629463846FBF7A6FE0120FA
:1071A000BDE8F08170B504460D468926A06820B17F
:1071B00029462046A26890470646304670BD0246E2
:1071C000002070472DE9F84F05468946174695F887
:1071D0002C10686A50F8214095F82C10286A50F855
:1071E00021A000260FB101203870B9F1230F70D013
:1071F00016DCB9F1230F6DD2DFE809F04D5257A725
:107200005C666D7294D0D5DAA0E6F3F86C6C6C6CA9
:107210006C6C6C6C6C777CFDEFEE81EDEC6CEB00D4
:10722000B9F1300F75D00BDCA9F124000C28E2D2A3
:10723000DFE800F0F1F0EFEEEDECEBEAE9E8E7E68D
:10724000B9F16E0F75D014DCB9F1400F72D009DCC2
:10725000B9F13D0F6FD0B9F13E0F6DD0B9F13F0FCD
:1072600038D145E1B9F1410F67D0B9F15B0FF7D1E2
:1072700070E0B9F1720F4FD006DCB9F16F0F78D022
:10728000B9F1700FECD145E0B9F1730F46D0B9F107
:10729000810FE5D144E0284600F0CFF906469EE193
:1072A000A06AFEF792FE064699E1A06AFEF793FEF9
:1072B000064694E15046FBF754FEC0EB00108000F8
:1072C0000A2190FBF1F68AE12068FDF790FB064663
:1072D00085E13AE17FE12068FDF782FB06467EE129
:1072E0002068FDF779FB064679E1206B00F07AFB18
:1072F000064674E1E06AFDF745F906466FE150463F
:10730000FBF702FEC0EB001080000A2190FBF1F6B3
:1073100065E1C8E0B44E62E1002660E100265EE16E
:1073200000265CE15046FBF70EFE0090BDF90060C0
:1073300055E129E0E6E07DE086E03EE05046FBF7DF
:1073400002FE0090BDF9026049E15046FBF7E6FD00
:10735000064644E15046FBF7E1FD01280AD15046BC
:10736000FBF7F7FDC0EB001080000A2190FBF1F65F
:1073700009E00EE05046FBF7F4FDC0EB0010800082
:107380000A2190FBF1F62AE12068FDF734FB06465E
:1073900025E12068FDF728FB064620E16068FDF73F
:1073A00026FB06461BE16068FDF71AFB064616E160
:1073B0006068FDF711FB064611E15046FBF7C3FD7F
:1073C0000090BDF902600AE1A068FDF710FB0646D7
:1073D00005E1B1E0A8E09FE025E01DE00BE005E05D
:1073E000FFE7A068FDF7FCFA0646F8E0A068FDF7A5
:1073F000F3FA0646F3E0E06BFCF741FD0646EEE0EB
:107400002CE0E1E0D9E0D1E0C9E0C1E0B9E08CE0F6
:1074100083E0AFE0A7E09FE000212846FFF7C2FE2F
:1074200080464646DBE001212846FFF7BBFE80464A
:107430004646D4E0286928B1002128462A699047A9
:10744000064600E00026CAE0286928B10121284646
:107450002A699047064600E00026C0E095F82C1007
:10746000A86A50F821804FF0000B0F2000EA187036
:10747000022804D00F2000EA1870012801D1D4F8A6
:1074800018B0C8F30360022803D0C8F303600128D2
:1074900001D1D4F81CB0BBF1000F03D05846FEF761
:1074A00025FC06469BE095F82C10A86A50F8218030
:1074B0004FF0000B0F2000EA1870022804D00F20B4
:1074C00000EA1870012801D1D4F818B0C8F303609D
:1074D000022803D0C8F30360012801D1D4F81CB0FE
:1074E000BBF1000F03D05846FEF708FC064676E0D5
:1074F000606AFEF711FDC0EB001080000A2190FBCE
:10750000F1F66CE0606AFEF715FDC0EB001080003C
:107510000A2190FBF1F662E000BF5046FBF70DFD3B
:107520000090BDF900605AE000BF5046FBF705FD32
:107530000090BDF9026052E0606920B16069FEF719
:1075400097FB064600E0002649E05046FBF7E9FCC1
:107550000090BDF9006042E05046FBF7E2FC00906D
:10756000BDF902603BE05046FBF7E1FC0090BDF93D
:10757000006034E05046FBF7DAFC0090BDF9026091
:107580002DE05046FBF7DFFC0090BDF9006026E0DF
:107590005046FBF7D8FC0090BDF902601FE0504652
:1075A000FBF7F7FC0090BDF9006018E05046FBF7D0
:1075B000F0FC0090BDF9026011E05046FBF7E2FCE0
:1075C0000090BDF900600AE05046FBF7DBFC00903C
:1075D000BDF9026003E00FB10020387000BF00BFAA
:1075E0003046BDE8F88F00007A84A6342DE9F047D4
:1075F0000446884615461E46DDF820904FF0010AE5
:1076000094F82C10606A50F82100476987B1414610
:107610003846FEF731FB288041463846FEF734FBFA
:10762000308041463846FEF739FBA9F8000001E0FA
:107630004FF0000A5046BDE8F087014691F82C0053
:10764000704710B5FCF790FA10B9FCF7CFFA01E0DB
:10765000FCF7D4FA10BD30B5039C01770262436297
:10766000002580F82C50846230BD00000D48008851
:1076700020B10C480088401E0A4908800A4800884A
:10768000012804D908480088401E07490880074897
:107690000088012804D905480088401E0349088055
:1076A000704700003006002032060020340600201B
:1076B00002460120137F8B4201DC002001E082F8AA
:1076C0002C1070474F200149088070473206002077
:1076D000002001490880704732060020F8B50446B2
:1076E0000D46164694F82C10206A50F82170ADF81B
:1076F0000050ADF8026038460099FBF75CFCF8BD1D
:1077000070B504460D461646606820B132462946DB
:1077100020466368984770BD2DE9F84F06460F462E
:10772000144696F82C10306A50F8218096F82C10E8
:10773000706A50F821504FF001090A2F66D008DC1A
:107740000A2F79D2DFE807F016909039902A2F346B
:10775000515D0E2F79D006DC0B2F5CD00C2F5FD043
:107760000D2F69D16CE00F2F74D0412F77D05B2F94
:107770007AD105E0E1B23046FFF79AFF814676E024
:1077800004EB840040003C2190FBF1F00FFA80FAFA
:10779000002251464046FBF7A1FB68E021B2286871
:1077A000FDF73CF963E021B22868FDF735F95EE0AA
:1077B00021B22868FDF72EF959E0E0B240B9404601
:1077C000FBF7DBFB8246002251464046FBF78DFB70
:1077D000E0B2012808D14046FBF7C3FB82460022F5
:1077E00051464046FBF77AFB41E04046FBF7ABFBD6
:1077F000009020B2ADF8000040460099FBF7DBFB9B
:1078000035E021B26868FDF709F930E021B2686817
:10781000FDF702F92BE021B26868FDF7FBF826E0DE
:107820004046FBF790FB009020B2ADF802004046C6
:107830000099FBF7C0FB1AE016E006E00AE00EE054
:1078400021B2A868FDF7EAF811E021B2A868FDF7B7
:10785000E3F80CE021B2A868FDF7DCF807E021B2FC
:107860004046FBF7B6FB02E04FF0000900BF00BF47
:107870004846BDE8F88F2DE9F04704460E46174606
:107880001D46DDF8208094F82C10606A50F8210025
:10789000D0F814903A4631464846FEF709FA2A468F
:1078A00031464846FEF70CFA424631464846FEF756
:1078B00010FA0120BDE8F0872DE9FE4304460D468D
:1078C00016461F46DDF828802148224908603022EC
:1078D000214920480068F8F7A4FC3B463246294677
:1078E0001C4800940068FFF7B6FE1A480068FFF7CE
:1078F000CCFB2322002117480068FFF701FF242258
:10790000012114480068FFF7FBFE14481449086081
:107910003022114912480068F8F783FC1148FFF73C
:1079200095FA0C4800681049104B114ACDE901083E
:1079300000910C490A480068FBF782FC3B4632463E
:107940002946074800940068FFF785FEBDE8FE83DE
:10795000940300202806002064030020D80800209B
:107960002C0600209C040020456E0008616F000872
:107970008F6F000870B51A49D1F82001FBF74BFA58
:1079800098B11749D1F82001FBF74FFA054629466F
:107990001348FFF76DFA0488012C01D1FFF792FE1E
:1079A000022C01D1FFF794FE00BF0D49D1F8200150
:1079B000FBF736FA10B10A48FFF71DFB0849D1F86A
:1079C0002001FBF723FA48B10548FFF745FA0449BF
:1079D000D1F82001FBF712FAFFF77AFE70BD000024
:1079E0009C0400200246D18850884143090C084677
:1079F0007047002101708180C1808181C1814182F5
:107A00000170016241620185018680F82C1080F8C6
:107A10002D10C18EC185002180F8321080F83310FE
:107A2000704710B504462046FFF7E3FF10BDF0B5E0
:107A300090F82C70EFBBBAB98181C7694F43B0F899
:107A40001AC00CEB8C0C4FEA4C0C97FBFCF73FB2C6
:107A5000C781C78990F801C017FB0CF73FB2C781F7
:107A600000270785418527E0878E57434FF47A7CAE
:107A7000B7FBFCF35F1CBBB20385B0F90E7090F846
:107A800001C097FBFCF73CB2C7694F43B0F81AC07E
:107A90000CEB8C0C4FEA4C0C97FBFCF73EB2371BFF
:107AA0003F0497FBF3F547786F4307624185C78929
:107AB00000E001E03F044762F0BD0186B0F93020EC
:107AC000437892FBF3F212B2C280818070470021AA
:107AD0000181418981804189C180704702480068E5
:107AE000C0F30220704700000CED00E010B5002844
:107AF00004DB0A07130E054A135406E00A07140EA6
:107B0000034A00F00F031B1FD45410BD00E400E033
:107B100018ED00E002E008C8121F08C1002AFAD1DF
:107B200070477047002001E001C1121F002AFBD1FD
:107B30007047000008B5F9F7A7FCFEF733FBFCF728
:107B4000ADFAFCF7A1F9FCF711FAFCF781FAFCF7A2
:107B5000E5FBFCF773FCFCF7D7FCFCF747FBFCF7F5
:107B600099FBFCF7ABFCFCF763FBFCF78DFDFCF726
:107B70003FFD102323A200210846FCF7B7FE012099
:107B8000102324A219460090002000F031F90120B2
:107B9000102324A220210090002000F029F90120C8
:107BA000102324A230210090002000F021F9FCF7DE
:107BB000F1FD40F6B830F9F73BFB40F6B830F9F785
:107BC00037FBFBF7C9FF40F6B830F9F731FB40F659
:107BD000B830F9F72DFB13E0FCF708F840F6B830A1
:107BE000F9F726FB40F6B830F9F722FB40F6B8303B
:107BF000F9F71EFBFCF702F840F6B830F9F718FB6E
:107C0000EAE70000464F43204472697665722056C9
:107C1000312E3000CAB8C1BFBFD8D6C6C7FDB6AF77
:107C2000C6F70000BFD8D6C6C4A3CABD3ACBD9B6E2
:107C3000C8BBB700CBD9B6C83A31323030000000EB
:107C400010B540211B48FAF7B7FF80211948FAF711
:107C5000B3FF4FF480711748FAF7AEFF4FF400718D
:107C60001448FAF7A9FF4FF480511348FAF7A4FF1C
:107C70004FF480610F48FAF79FFF4FF480410E48A0
:107C8000FAF79AFF4FF400410B48FAF795FF4FF4CB
:107C900000510948FAF790FF02210648FAF78CFFD5
:107CA00001210548FAF788FF02210348FAF784FF0B
:107CB00010BD000000000240000402402DE9F04F1A
:107CC00085B007460E46934698460E9C029620467F
:107CD000E21704EB5272D2102146E31704EB537300
:107CE000DB10A4EBC3030BB1012300E000231A4413
:107CF00002FB08F2D2B20192B8F1100F05D1102C9C
:107D000003D13948D0F8009002E005B0BDE8F08F0B
:107D1000002510E019F815009BF80010884208D1E2
:107D20006800401C19F800009BF80110884200D13F
:107D30000AE0681C85B24846F8F797FA009000EB15
:107D4000D070B5EB600FE5DB00BF4846F8F78DFA61
:107D5000009000EBD070B5EB600F00DBD5E74FF083
:107D6000000A3BE0B8F1100F07D1102C05D11F48D5
:107D700000EB451010F80A0004900020039025E065
:107D8000049800F0800028B1F1B2F8B20F9AFCF725
:107D900047FC09E00F9B0BB9012300E000231A46C2
:107DA000F1B2F8B2FCF73CFC04984006000E0490D7
:107DB000701C86B20298301AA04203D1029E781C31
:107DC00087B206E00398401CC0B2039003980828CD
:107DD000D6DB00BF0AF1010000F0FF0A01988245DE
:107DE000C0DB00BF91E7000038060020AC9A000815
:107DF0002DE9FC5F07460D4616461C46DDF830901F
:107E0000B846AA464FF0000B4DE0BBF1000F2ED153
:107E10003078802802DD4FF0010B44E004EBD47190
:107E20004A1008F18001891AB94202DA281985B28C
:107E300047460AF14000001BA84200DA36E03078DD
:107E40000D2804D1281985B24746761C07E0CDF8E5
:107E500000903278E9B2F8B22346FCF7C1FC761CF8
:107E6000204604EBD07107EB61018FB21BE04FF0AD
:107E7000000B08F18000001BB84203DAA01C284464
:107E800085B247460AF14000001BA84200DA0DE027
:107E90002346324629463846CDE90049FFF70EFF12
:107EA000B61C381987B230780028AED100BFBDE8C3
:107EB000FC9F000038B50120194909680140814242
:107EC00000D100E000210C4600BFB4B901201449E4
:107ED00009680143124A1160114609680140009186
:107EE00000BF00BF8007FAF79BFE01200C4909681C
:107EF00081430B4A116000BF11E04FF080404068A1
:107F000000F0700520214806FAF772FF4FF080401C
:107F1000FAF786FE29464FF08040FAF769FF38BD30
:107F20004038024070B50D4600BF066806F0700686
:107F300006F06006602E02D1561C740102E0561C49
:107F40007608740100BF6FF00206066100BF0021D1
:107F500013E000BF0669C6F3400676B100BF6FF0BC
:107F60000206066100BF4E1CB1B2A14205DB1E78BD
:107F7000102E02D201262E8002E01E78102EE8D3A9
:107F800000BF70BD000000000404040000080000F1
:107F900000080000080000000800020406080A0C9F
:107FA00000010203040506102840587088A0B85349
:107FB00054204D432053444B095665722E352E34C0
:107FC0002E3400000000000000000000000000004F
:107FD0000000000004040400000800000008000085
:107FE000080000000800020406080A0C0001020351
:107FF000040506102840587088A0B800F1FF000062
:10800000000004040400000800000008000008004C
:1080100000000800020406080A0C0001020304051F
:1080200006102840587088A0B8000000C9009201CE
:108030005B022403ED03B6047F0548061107D90748
:10804000A2086A09330AFB0AC40B8C0C540D1C0EDF
:10805000E30EAB0F72103A110112C8128F135514B0
:108060001C15E215A8166E173318F918BE19821AD6
:10807000471B0B1CCF1C931D571E1A1FDD1F9F2073
:1080800061212322E522A62367242825E825A826A6
:1080900067272628E528A329612A1F2BDC2B992C8A
:1080A000552D112ECC2E872F4130FB30B5316E323D
:1080B0002633DF3396344D350436BA366F372438DD
:1080C000D9388C39403AF23AA53B563C073DB83D89
:1080D000683E173FC53F73402141CE417A42254358
:1080E000D0437A442445CD4575461C47C34769486B
:1080F0000F49B449584AFB4A9D4B3F4CE04C814DD7
:10810000204EBF4E5D4FFB4F97503351CE516852BA
:1081100002539B533254C9546055F5558A561D5726
:10812000B0574258D3586459F359825A0F5B9C5B3D
:10813000285CB35C3E5DC75D4F5ED75E5D5FE35F0D
:108140006860EB606E61F0617162F1627063EE63B2
:108150006C64E8646365DD655666CF664667BC6738
:108160003268A66819698B69FD696D6ADC6A4A6BB9
:10817000B76B236C8E6CF86C616DC96D306E966E4A
:10818000FB6E5E6FC16F22708370E27040719D71F3
:10819000F9715472AE7207735E73B5730A745F74CB
:1081A000B27404755575A575F37541768D76D876DC
:1081B00022776B77B377FA773F788478C778097935
:1081C0004A798979C879057A417A7C7AB67AEE7AE1
:1081D000267B5C7B917BC57BF87B297C597C887CEA
:1081E000B67CE37C0E7D397D627D897DB07DD57D59
:1081F000FA7D1D7E3E7E5F7E7E7E9C7EB97ED57E34
:10820000EF7E097F217F377F4D7F617F747F867F7F
:10821000977FA67FB47FC17FCD7FD87FE17FE97F45
:10822000F07FF57FF97FFD7FFE7F000000000000FA
:10823000040404000008000000080000080000001A
:108240000800020406080A0C0001020304050610D7
:108250002840587088A0B80000200140002101404B
:1082600000000140000000000000000000000000CD
:108270000000000000000000000000003C20014061
:108280003C2001403C2001403C2001403C2001407A
:108290003C2001403C2101403C2101403C21014067
:1082A0003C2101403C2101403C2101400080040070
:1082B00000000400000004000000040000000400AE
:1082C00000800400008000000080000000800000AA
:1082D0000080040000800400008000000D013202D4
:1082E0003100000001010101010000000000000058
:1082F0000000000000000000000000003F400000FF
:10830000000000000000300040003000400000008D
:1083100009000BC03D000BC03D00090018C02440FF
:108320007FE0224031800000180024C01B000D8037
:108330003240018003801C4027401C8007400040E1
:1083400010006000000000000000000000000000BD
:1083500000001F80204040200000402020401F805F
:1083600000000000090006001F8006000900000050
:10837000040004003F8004000400000000100060BE
:1083800000000000000000000400040004000400DD
:108390000400000000000040000000000000000099
:1083A000002001C006003800400000001F8020406F
:1083B000204020401F800000000010403FC00040CF
:1083C0000000000018C02140224024401840000056
:1083D00010802040244024401B80000002000D003B
:1083E00011003FC0014000003C8024402440244054
:1083F000238000001F80244024403440038000007C
:108400003000200027C03800200000001B802440DE
:10841000244024401B8000001C0022C02240224037
:108420001F80000000000000084000000000000065
:1084300000000000046000000000000000000400D4
:108440000A001100208040400900090009000900CD
:108450000900000000004040208011000A000400D4
:108460001800200023402400180000001F80204036
:10847000274029401F400000004007C039000F007E
:1084800001C0004020403FC0244024401B80000029
:108490001F802040204020403080000020403FC00E
:1084A000204020401F80000020403FC024402E403C
:1084B00030C0000020403FC024402E0030000000AB
:1084C0000F001080204022403380020020403FC037
:1084D000040004003FC02040204020403FC0204016
:1084E000204000000060202020203FC0200020000D
:1084F00020403FC024400B0030C0204020403FC0FF
:1085000020400040004000C03FC03C0003C03C0091
:108510003FC0000020403FC00C4023003FC020006F
:108520001F802040204020401F80000020403FC08E
:1085300024402400180000001F802140214020E03A
:108540001FA0000020403FC02440260019C000406A
:1085500018C02440244022403180000030002040D8
:108560003FC020403000000020003F80004000401D
:108570003F80200020003E0001C00700380020009E
:10858000380007C03C0007C038000000204039C058
:10859000060039C0204000002000384007C03840A5
:1085A00020000000304021C02640384020C000009C
:1085B000000000007FE0402040200000000070002C
:1085C0000C000380004000000000402040207FE0BD
:1085D000000000000000200040002000000000001B
:1085E000001000100010001000100010000000002B
:1085F000400000000000000000000280054005402F
:1086000003C0004020003FC004400440038000003D
:108610000000038004400440064000000000038086
:10862000044024403FC00040000003800540054056
:1086300003400000000004401FC0244024402000EC
:10864000000002E0055005500650042020403FC0C5
:108650000440040003C000400000044027C0004064
:108660000000000000100010041027E000000000CF
:1086700020403FC00140070004C00440204020408B
:108680003FC000400040000007C0040007C00400D5
:1086900003C00000044007C00440040003C00040C1
:1086A000000003800440044003800000041007F031
:1086B0000450044003800000000003800440045084
:1086C00007F00010044007C002400400040000004E
:1086D000000006400540054004C000000000040002
:1086E0001F80044000400000040007800040044058
:1086F00007C000400400070004C001800600040019
:10870000060001C0070001C006000000044006C0CA
:10871000010006C0044000000410071004E00180BE
:10872000060004000000044005C0064004400000AC
:108730000000000004007BE040200000000000007A
:108740000000FFF000000000000040207BE004007B
:108750000000000040008000400020002000400099
:108760000000000000000000000000000000000009
:108770000000000000001FCC000C00000000000002
:1087800000000800300060000800300060000000B9
:10879000022003FC1E20022003FC1E2002200000F9
:1087A00000000E1811043FFF10840C780000000038
:1087B0000F0010840F3800C007781884007800007C
:1087C00000780F8410C411240E9800E4008400087F
:1087D00008006800700000000000000000000000B9
:1087E00000000000000007E018182004400200000C
:1087F000000040022004181807E0000000000000FC
:108800000240024001800FF001800240024000005F
:108810000080008000800FF8008000800080000051
:108820000001000D000E000000000000000000002C
:1088300000000080008000800080008000800080B8
:108840000000000C000C0000000000000000000010
:1088500000000006001800600180060018002000DB
:10886000000007F0080810041004080807F00000D2
:108870000000080408041FFC0004000400000000BD
:1088800000000E0C10141024104411840E0C000073
:1088900000000C1810041104110412880C70000060
:1088A000000000E00320042408241FFC0024000032
:1088B00000001F981084110411041088107000002B
:1088C000000007F0088811041104188800700000E7
:1088D00000001C00100010FC13001C001000000021
:1088E00000000E3811441084108411440E3800002A
:1088F00000000700088C10441044088807F00000AE
:10890000000000000000030C030C00000000000049
:10891000000000000001010600000000000000004F
:10892000000000800140022004100808100400002C
:108930000220022002200220022002200220000049
:10894000000010040808041002200140008000000C
:1089500000000E001200100C106C10800F000000C0
:1089600003E00C1813E4142417C4082807D00000EF
:108970000004003C03C41C40074000E4001C000449
:1089800010041FFC1104110411040E880070000073
:1089900003E00C1810041004100410081C10000050
:1089A00010041FFC100410041004080807F0000055
:1089B00010041FFC1104110417C41004081800004F
:1089C00010041FFC1104110017C010000800000063
:1089D00003E00C181004100410441C780040000040
:1089E00010041FFC10840080008010841FFC100401
:1089F0000000100410041FFC10041004000000000C
:108A000000030001100110011FFE10001000000003
:108A100010041FFC110403801464181C10040000CF
:108A200010041FFC1004000400040004000C0000EB
:108A300010041FFC1F0000FC1F001FFC100400009E
:108A400010041FFC0C04030000E010181FFC1000B1
:108A500007F00808100410041004080807F00000CC
:108A600010041FFC10841080108010800F00000084
:108A700007F0081810241024101C080A07F2000040
:108A800010041FFC1104110011C011300E0C000461
:108A900000000E1C11041084108410441C380000C7
:108AA0001800100010041FFC100410001800000033
:108AB00010001FF810040004000410041FF8100038
:108AC00010001E0011E0001C007013801C0010003C
:108AD0001FC0103C00E01F0000E0103C1FC0000061
:108AE0001004180C163401C001C01634180C100400
:108AF00010001C00130400FC13041C0010000000F4
:108B00000804101C1064108413041C0410180000C6
:108B10000000000000007FFE400240024002000012
:108B2000000030000C0003800060001C0003000007
:108B300000004002400240027FFE000000000000F2
:108B40000000000020004000400040002000000025
:108B5000000100010001000100010001000100010D
:108B60000000400040002000000000000000000065
:108B700000000098012401440144014400FC000469
:108B800010001FFC00880104010400880070000030
:108B90000000007000880104010401040088000046
:108BA0000000007000880104010411081FFC00048B
:108BB000000000F8014401440144014400C80000E1
:108BC0000000010401040FFC11041104110018003D
:108BD000000000D601290129012901C90106000070
:108BE00010041FFC008401000100010400FC0004CB
:108BF00000000104190419FC000400040000000036
:108C00000000000300010101190119FE000000002D
:108C100010041FFC0024004001B4010C01040000FA
:108C20000000100410041FFC0004000400000000F9
:108C3000010401FC0104010001FC0104010000FC2D
:108C4000010401FC008401000100010400FC000497
:108C5000000000F8010401040104010400F8000010
:108C6000010101FF0085010401040088007000007B
:108C700000000070008801040104010501FF0001EB
:108C80000104010401FC00840104010001800000D2
:108C9000000000CC012401240124012401980000DB
:108CA00000000100010007F80104010400000000B9
:108CB000010001F8000400040004010801FC0004A4
:108CC000010001800170000C0010016001800100B2
:108CD00001F0010C003001C00030010C01F0010076
:108CE00000000104018C00740170018C010400007B
:108CF000010101810171000E001801600180010075
:108D000000000184010C013401440184010C0000C5
:108D1000000000000000000001003EFC4002400294
:108D20000000000000000000FFFF00000000000045
:108D30000000400240023EFC010000000000000074
:108D40000000600080008000400040002000200003
:108D50000000000000000000000000000000000013
:108D60000000000000000000000000000000000003
:108D700000000000000000000000000000000000F3
:108D80000000000F80380FFE380F80380000000010
:108D900000000000000000000000000000000100D2
:108DA000000600000C000038000031000006000042
:108DB0000C0000380000300000000000000000003F
:108DC00061800067F807F9800061800061800061C0
:108DD000800061800067F807F98000618000000072
:108DE00000000000000001C0E003E0F006300804CD
:108DF00018081FFFFE040E080787F00381E000003B
:108E00000000000001F000060C00040408060C70CD
:108E100001F9C0000E00003BE000EC180708080450
:108E20000C180003E00000000001E00007F003F868
:108E300018041C0804170807E1D003C0E00023B0A1
:108E4000003C0800200800001000000000000001A5
:108E500000003100003200001C0000000000000093
:108E60000000000000000000000000000000000002
:108E700000000000000000000000000000000000F2
:108E80007F0001FFC00780F00C00181000042000D4
:108E9000020000000000002000021000040C001876
:108EA0000780F001FFC0007F00000000000000000C
:108EB000000000000000000000000000420000660A
:108EC00000006600003C0000180003FFC00018000E
:108ED000003C000066000066000042000000000048
:108EE000080000080000080000080000080001FF5A
:108EF000C00008000008000008000008000008008A
:108F000000000000000100003100003200001C00E1
:108F10000000000000000000000000000000000051
:108F20000000000000000000080000080000080029
:108F30000008000008000008000008000008000009
:108F40000800000800000000000000000000000011
:108F50003800003800003800000000000000000069
:108F60000000000000000000000000000000000001
:108F7000000600001C000070000180000E00003898
:108F80000000C0000700001C0000300000000000CE
:108F9000000000007F8001FFE003807006001804DD
:108FA000000804000806001803807001FFE0007F3D
:108FB000800000000000000000000100080100081F
:108FC00001000803FFF807FFF80000080000080090
:108FD000000800000000000000000001C03802C0CE
:108FE00058040098040118040218040418061C18F8
:108FF00003F81801E0F80000000000000000000184
:10900000C0E003C0F00400080408080408080618BB
:109010000803F41801E7F00001E000000000000080
:10902000000000000300000D0000110000610000BE
:10903000810803010807FFF80FFFF800010800018D
:10904000080000000000000000E007FCD00608084F
:10905000061008061008061008061838060FF00655
:1090600007C0000000000000000000003F8001FF7A
:10907000E0038430020818041008041008041008E3
:10908000071810030FF00007C000000000000000E8
:10909000000003C0000700000600000600F80607F5
:1090A000F806180006E000070000060000000000B7
:1090B00000000001E1E003F7F00634100418080492
:1090C0001808040C08040C0806161803F3F001C174
:1090D000E000000000000000F80003FC3003063848
:1090E0000402080402080402080404100308F00142
:1090F000FFC0007F00000000000000000000000032
:109100000000000000000000703800703800703867
:10911000000000000000000000000000000000004F
:10912000000000000000000000000000301A0030C5
:109130001C00000000000000000000000000000013
:1091400000000000000000080000140000220000E1
:10915000410000808001004002002004001008004F
:109160000800000000000000210000210000210094
:10917000002100002100002100002100002100004A
:109180002100002100000000000000000000080095
:10919000080400100200200100400080800041000F
:1091A000002200001400000800000000000000037E
:1091B000C00004C000040000080038080F38080888
:1091C000380810000C300007E00003C00000000069
:1091D000000000003F8000FFE0038070020F1006D7
:1091E000708804C088048308047F8802C09003014B
:1091F0002000FE400000080000180001F8003E08B2
:1092000001C20007020007E20000FE00001FC800C4
:1092100001F800003800000804000807FFF807FF05
:10922000F8040808040808040808040808061808D0
:1092300003F41801E7F00001E00000000000000066
:109240003F8001FFE0038070020018040008040062
:10925000080400080400100600200780C000000079
:1092600004000807FFF807FFF804000804000804DA
:10927000000804001802001003807001FFE0007F66
:109280008000000004000807FFF807FFF804080842
:10929000040808040808040808043E080400080636
:1092A000001801006000000004000807FFF807FF35
:1092B000F8040808040800040800040800043E003C
:1092C0000600000600000180000000000000000011
:1092D0003F8001FFE00380700600180400080402CC
:1092E000080402080203F00783F0000200000200F5
:1092F00004000807FFF807FFF8040808000800004A
:10930000080000080000080004080807FFF807FF2D
:10931000F804000800000000000004000804000831
:1093200004000807FFF807FFF80400080400080419
:10933000000800000000000000000000000600001F
:109340000700000104000104000104000307FFFE00
:1093500007FFFC04000004000004000004000807EC
:10936000FFF807FFF8040C08001800003E0004C7CF
:10937000800503C80600F80400380400180000083F
:1093800004000807FFF807FFF804000800000800C1
:109390000008000008000008000008000018000095
:1093A0006000000004000807FFF807800807FC00C1
:1093B000007FC00003F80007C0007800078008079E
:1093C000FFF807FFF804000804000807FFF807008B
:1093D0000803C00000E000003800001E0000070085
:1093E0000001C00400F007FFF804000000000000C6
:1093F0007F8001FFE003807006001804000804006D
:109400000806001803003001FFE0007F8000000024
:1094100004000807FFF807FFF80404080404000428
:109420000400040400040400060C0003F80001F02A
:1094300000000000000000007F8001FFE00380705A
:109440000600880400880400C806003C03003E01B2
:10945000FFE6007F8400000004000807FFF807FF14
:10946000F8040808040800040C00040F00040BC0F2
:109470000610F003F03801E00800000800000001C9
:10948000E0F803F030063010041808041808040C43
:1094900008040C080206180207F00781E00000002B
:1094A000018000060000040000040000040008071A
:1094B000FFF807FFF804000804000004000006009D
:1094C0000001800004000007FFE007FFF00400181F
:1094D0000000080000080000080000080000080460
:1094E000001007FFE004000004000006000007E091
:1094F0000007FE00041FE00001F80000380001E052
:10950000043E0007C000060000040000040000073D
:10951000E00007FFC0041FF80007C007F80007FFBE
:1095200080043FF80007C004F800070000040000B2
:1095300000000004000806001807C07805F1C80004
:109540003E00001F800463E80780F806001804004E
:109550000800000004000006000007800007E00883
:10956000047C08001FF80007F800180804E008074A
:1095700000000600000400000000000100080600D2
:10958000380400F80403E8040F08047C0805F00818
:1095900007C0080700180400600000000000000079
:1095A00000000000000000000000003FFFFE20005F
:1095B0000220000220000220000220000200000021
:1095C00000000000000008000007000000C00000CC
:1095D00038000006000001C000003000000E00004E
:1095E0000100000000000000000020000220000236
:1095F0002000022000022000023FFFFE00000000C9
:10960000000000000000000000000000000000005A
:1096100000080000100000300000200000300000B2
:109620001000000800000000000000000000010021
:109630000001000001000001000001000001000025
:109640000100000100000100000100000100000114
:1096500000000000000000000020000020000010BA
:1096600000001000000000000000000000000000EA
:10967000000000000000000000F00019F8001B18B6
:10968000002208002608002408002410003FF800EB
:109690001FF800000800001800000004000007FF89
:1096A000F80FFFF00018180010080020080020082C
:1096B000003018001FF0000FC00000000000000084
:1096C00007C0001FF000183000200800200800200C
:1096D00008003C08001C10000060000000000000B2
:1096E0000000000007C0001FF0003818002008002C
:1096F000200800200804101007FFF80FFFF00000FA
:10970000100000000000000000000007C0001FF073
:10971000001230002218002208002208003208003F
:109720001E10000E2000000000000000200000209D
:109730000800200801FFF803FFF8062008042008AD
:1097400004200807200003000000000000000000C3
:10975000000E000E6E001FF30031B10020B100209A
:10976000B1003191001F13002E1E00200E003000AA
:1097700000000004000807FFF80FFFF800100800C1
:109780002000002000002008003FF8001FF8000023
:109790000800000000000000000000200800200871
:1097A000002008063FF8063FF80000080000080007
:1097B00000080000000000000000000000000000A1
:1097C00003000003002001002001002003063FFEEB
:1097D000063FFC0000000000000000000000000444
:1097E000000807FFF80FFFF8000188000300002FB2
:1097F000C00038F8002038002008000008000000F1
:10980000000000000000040008040008040008072D
:10981000FFF80FFFF8000008000008000008000033
:1098200000000000002008003FF8003FF80010088A
:10983000002000003FF8003FF80010080020000062
:109840003FF8003FF8000008000000002008003F3B
:10985000F8003FF800100800100000200000200869
:10986000003FF8001FF800000800000000000000A2
:1098700007C0000FF000183000300800200800205A
:1098800008003008001830000FF00007C00000008A
:10989000000000002001003FFF003FFF001011000A
:1098A0002009002008002008003038001FF0000FB9
:1098B000C00000000000000007C0001FF0003818C2
:1098C000002008002008002009001011001FFF00E0
:1098D0003FFF0000010000000020080020080020D9
:1098E00008003FF8003FF8000808001008002008B2
:1098F00000200000300000300000000000000000E8
:109900000000000C78001E18003308002308002116
:10991000080021880021980030F000386000000025
:1099200000000000200000200000200000FFF003E5
:10993000FFF8002008002008002008000030000088
:1099400000000000000000002000003FF0007FF851
:10995000000018000008000008002010003FF80078
:109960007FF0000010000000000000002000003028
:1099700000003C00003F800023F0000078000070F1
:10998000002380003C000030000020000020000088
:109990003C00003FE00023F80000E0002700003E0C
:1099A00000003FE00021F80001E0003E0000200040
:1099B000000000002008002008003838003E680041
:1099C00027800003C8002CF8003838002018002039
:1099D00008000000000000002000003003003C01EF
:1099E000003F830023EC000070002380003C000057
:1099F00020000020000000000000000000000038EF
:109A0000080020380020F80023E8002F88003E08D6
:109A1000003808002018000070000000000000005E
:109A2000000000000000000000000000080000141A
:109A3000001FF7FC300006200002000000000000BC
:109A40000000000000000000000000000000000016
:109A50000000FFFFFF000000000000000000000009
:109A6000000000000000000000002000023000069E
:109A70001FF7FC00140000080000000000000000B8
:109A8000000000000000000000000018000060005E
:109A9000004000004000002000001000000800000E
:109AA0000400000400000C0000100000008102818E
:109AB00004821882F084108810B01FC010B0108883
:109AC00010841082108200810081000004000401D3
:109AD00004017DF555555555555555FF5555555569
:109AE00055557DF5040104010400000008400842BA
:109AF0000881FFFE0900040219021242144290423A
:109B0000707E1442124215421802000002000A0040
:109B1000727C12401240FFFF124812441278020079
:109B20001FF000020001FFFE0000000040105F185F
:109B3000411241217F2201FC00007FFE400A4812B1
:109B4000466241824662581A400200000208223CE6
:109B500023C822082228221D0202080C0870FF8058
:109B60000802080108020FFC00000000082008C0DD
:109B70000B00FFFF090008C100063FF824012782FF
:109B800024644418C46447820001000001004101BC
:109B90004102410C7FF04100410041004100410081
:109BA0007FFF41004100410001000000000000046F
:109BB0001808683108C10B011D82E96209140908FF
:109BC0000914492229C20801000100000000000018
:109BD0001FF81110111011101110FFFE11111111A9
:109BE000111111111FF90001000F000008200620BB
:109BF000407E3380010001003FFC02020402FFF2BC
:109C0000080210221FE20002001E000000010006F0
:109C10007FF8400241024102410241025FFE4102DF
:109C200041024122411A4102400200000820062060
:109C3000407E318000012202267C2A00B200627F31
:109C400022002A00267E2301200700000002000CCB
:109C50003FF124012402270224C42428441044286C
:109C60004444C582460200010001000000002211A8
:109C700022912452FF942818007024502590FE123F
:109C8000211120123F1C008003C00000082008C0E2
:109C90000B00FFFF0900289127D2F55425582570A5
:109CA0002558F55427D220110001000008000804AF
:109CB0000906090409FC0908090808080800FFC08A
:109CC0000830080888046802081F00000200040029
:109CD00008001010E41822102120202020402040ED
:109CE0002082200120023FFC00000000020002024E
:109CF000420433F8000420122F2229422982FFFA5D
:109D0000298229422F222012000200000002000CAA
:109D10003FF12401242124323FAAA4A464A424A452
:109D20003FAA2432240124012001000013101D1831
:109D3000F11017FF112011200200124012D0174815
:109D4000FA44124B12501260020000000901110681
:109D5000E1183FE02110210C01007FFE4422442243
:109D600044224422442247E2400200000820082204
:109D70000841FFFE088009020002410241FE7F0205
:109D80004102410241027FFE00020000008001000A
:109D900006001FFFE00208020982087A88026802B2
:109DA000080E08720B820802000200000002E8029E
:109DB000A802ABFEAAAAEAAAAAAABEAAAAAAEAAAC4
:109DC000AAAAABFEA802E8020002000020042106B5
:109DD00021043FF821082108002020402080210094
:109DE00027FF3800210020802060000001100110B2
:109DF000792F492949494949798F07000180794FCD
:109E00004D494B294929791F0110000000017FFEAF
:109E100004800480FCFF040100063FF8240127822F
:109E200024644418C464478200010000000808103C
:109E30000820084008900B100C10FFFF0C100B10AE
:109E400008900840082008100008000001000100E8
:109E500001007D6045A04520452045204522452143
:109E600045227D3C01000100010000000002000CC1
:109E70007FF0482049214D264BF8492049204920B0
:109E80004BFF4D2079200020000000000048404892
:109E900040505F7E5550F5D05550557F5550F55484
:109EA00055525F7C405040480048000000810081CE
:109EB000088288826884088808B00FC008B00888C3
:109EC0002884C8820882008100810000020002000C
:109ED000420042004200420242017FFE4200420034
:109EE00042004200420002000200000004440CE66E
:109EF0003544C6480C4A001C3FE024FFA49064FE91
:109F0000249024FC24913CFF00000000204021808C
:109F100027FE3A08220823FC000040104F10411091
:109F2000411041127F11010201FC00000810302095
:109F3000A040AAFFABAAAAAAA0AAFEAAA1FEAAAA0A
:109F4000AAAAAAAAA0AA2882300000000104020836
:109F500004101860F0001002100117FE100010002D
:109F60001000104014201810000C000020012201E5
:109F70002481288220C23EA4A094608820943EA41C
:109F800020C228822401220120010000084008424A
:109F90000881FFFE09000421082117E2E424243887
:109FA00027E02C38342407E20021000000024002A0
:109FB000400243FE4002400240027FFE4102410255
:109FC000410241024102400200020000400047C23B
:109FD000444144427C7C00001084118E12949CA465
:109FE00070C410841314100E100000003FFF2001F5
:109FF0002001E00180018001E001200120013FFFFC
:10A000003FFF20032003E00380038003E0032003DD
:10A0100020033FFF3FFF20072007E007800780075E
:10A02000E007200720073FFF3FFF200F200FE00F32
:10A03000800F800FE00F200F200F3FFF3FFF201FFA
:10A04000201FE01F801F801FE01F201F201F3FFFD9
:10A050003FFF203F203FE03F803F803FE03F203FE9
:10A06000203F3FFF3FFF207F207FE07F807F807F7A
:10A07000E07F207F207F3FFF3FFF20FF20FFE0FFAA
:10A0800080FF80FFE0FF20FF20FF3FFF3FFF21FF19
:10A0900021FFE1FF81FF81FFE1FF21FF21FF3FFF62
:10A0A0003FFF23FF23FFE3FF83FF83FFE3FF23FF44
:10A0B00023FF3FFF3FFF27FF27FFE7FF87FF87FFC4
:10A0C000E7FF27FF27FF3FFF3FFF2FFF2FFFEFFF98
:10A0D0008FFF8FFFEFFF2FFF2FFF3FFF3FFF3FFF60
:10A0E0003FFFFFFF9FFF9FFFFFFF3FFF3FFF3FFF40
:10A0F0000000000000000000010203040607080938
:10A100000000000001020304000000000404040039
:10A110000008000000080000080000000800020419
:10A1200006080A0C000102030405061028405870B6
:10A1300088A0B8000000000404040000080000002B
:10A14000080000080000000800020406080A0C00CD
:10A15000010203040506102840587088A0B80000CA
:10A1600000000404040000080000000800000800CB
:10A1700000000800020406080A0C0001020304059E
:10A1800006102840587088A0B800000001000200A6
:10A19000CAB8C1BFBFD8D6C6C7FDB6AFB0E5BFAA63
:10A1A000B7A2B5E7B3D8D1B9C1F7B7B4CAC6C4A38B
:10A1B000CABDD4C8CBD9B6C8D7AABED8C5A4CEBB51
:10A1C000D6C3BBB7C6F7B0E6B1BEBAC5C6C1C4BB3D
:10A1D000B9D8D3DAB1E0C2EBBBF4B6FBB1E4BBBB98
:10A1E000D5FDCFD20000000008A20008000000202A
:10A1F0004C060000DC0200089CA300084C0600206E
:10A200005C0B0000247B000881227002FF200111FA
:10A21000A3DA9422141320E6A25A236B2420099572
:10A22000DBFF6B2495DB10130104D2089518098914
:10A230000914C0FF1F124016E0FF7F0180120413B3
:10A24000400A0A370E2C011C45E80347022BB9FDD2
:10A25000961201B2FA13694F1408CF5614083957F1
:10A260001408514E1408B1581B084D104B8D52B9AB
:10A2700013B1531B08A50C137954041E08158E2323
:10A28000042912431A2A0201166382141B58825CA5
:10A2900012040210031A9EA625FFFF803E0A150134
:10A2A000C80B1F900138120402484055E803A00F64
:10A2B00012100A140E2013B0163540BC0204091007
:10A2C000B204132B021912015AF42B43250613E989
:10A2D000051B08A9041AF5041AB5041AC5041A4581
:10A2E00004014A3A019C0316803E0093209879832A
:10A2F00073657F367E107D807C657B527A4679401F
:10A30000784177C476CE75DF74F47310739F72C290
:10A3100071EA701770486F7D6E1A6E566D966CDA22
:10A320006B216B6D6A136A6469B8680F6869671896
:10A33000677666D8653D65A4640E64C4633263A223
:10A340006215628A614561BE603960B55F345FB590
:10A350005E765EFA5D805D085D915C1C5CE25B7020
:10A360005BFF5A905A235AED5981591859AF5848F2
:10A3700058E357B1574D57EB568A562B56CC5502DA
:10A38000FF3901231248026540E20232271390A1EF
:0CA390004208321042011324F4000000C7
:040000050800018965
:00000001FF
